{
  "_format": "hh-sol-artifact-1",
  "contractName": "FMarket",
  "sourceName": "contracts/FMarket.sol",
  "abi": [
    {
      "inputs": [],
      "stateMutability": "nonpayable",
      "type": "constructor"
    },
    {
      "anonymous": false,
      "inputs": [
        {
          "indexed": true,
          "internalType": "address",
          "name": "newAddress",
          "type": "address"
        }
      ],
      "name": "ChangeHeroAddress",
      "type": "event"
    },
    {
      "anonymous": false,
      "inputs": [
        {
          "indexed": true,
          "internalType": "address",
          "name": "newAddress",
          "type": "address"
        }
      ],
      "name": "ChangeLandAddress",
      "type": "event"
    },
    {
      "anonymous": false,
      "inputs": [
        {
          "indexed": true,
          "internalType": "uint256",
          "name": "newMarketFee",
          "type": "uint256"
        }
      ],
      "name": "ChangeMarketFee",
      "type": "event"
    },
    {
      "anonymous": false,
      "inputs": [
        {
          "indexed": true,
          "internalType": "address",
          "name": "newReceiveFundAddress",
          "type": "address"
        }
      ],
      "name": "ChangeReceiveFundAddress",
      "type": "event"
    },
    {
      "anonymous": false,
      "inputs": [
        {
          "indexed": true,
          "internalType": "address",
          "name": "newAddress",
          "type": "address"
        }
      ],
      "name": "ChangeTokenAddress",
      "type": "event"
    },
    {
      "anonymous": false,
      "inputs": [
        {
          "indexed": true,
          "internalType": "address",
          "name": "nftAddress",
          "type": "address"
        },
        {
          "indexed": true,
          "internalType": "uint256",
          "name": "tokenId",
          "type": "uint256"
        },
        {
          "indexed": true,
          "internalType": "address",
          "name": "buyer",
          "type": "address"
        },
        {
          "indexed": false,
          "internalType": "address",
          "name": "seller",
          "type": "address"
        },
        {
          "indexed": false,
          "internalType": "uint256",
          "name": "price",
          "type": "uint256"
        }
      ],
      "name": "NftBought",
      "type": "event"
    },
    {
      "anonymous": false,
      "inputs": [
        {
          "indexed": true,
          "internalType": "address",
          "name": "nftAddress",
          "type": "address"
        },
        {
          "indexed": true,
          "internalType": "uint256",
          "name": "tokenId",
          "type": "uint256"
        },
        {
          "indexed": false,
          "internalType": "uint256",
          "name": "newPrice",
          "type": "uint256"
        }
      ],
      "name": "NftChangePrice",
      "type": "event"
    },
    {
      "anonymous": false,
      "inputs": [
        {
          "indexed": true,
          "internalType": "address",
          "name": "nftAddress",
          "type": "address"
        },
        {
          "indexed": true,
          "internalType": "uint256",
          "name": "tokenId",
          "type": "uint256"
        },
        {
          "indexed": false,
          "internalType": "uint256",
          "name": "price",
          "type": "uint256"
        }
      ],
      "name": "NftListing",
      "type": "event"
    },
    {
      "anonymous": false,
      "inputs": [
        {
          "indexed": true,
          "internalType": "address",
          "name": "nftAddress",
          "type": "address"
        },
        {
          "indexed": true,
          "internalType": "uint256",
          "name": "tokenId",
          "type": "uint256"
        },
        {
          "indexed": true,
          "internalType": "address",
          "name": "buyer",
          "type": "address"
        }
      ],
      "name": "NftOfferCanceled",
      "type": "event"
    },
    {
      "anonymous": false,
      "inputs": [
        {
          "indexed": true,
          "internalType": "address",
          "name": "nftAddress",
          "type": "address"
        },
        {
          "indexed": true,
          "internalType": "uint256",
          "name": "tokenId",
          "type": "uint256"
        },
        {
          "indexed": true,
          "internalType": "address",
          "name": "buyer",
          "type": "address"
        },
        {
          "indexed": false,
          "internalType": "uint256",
          "name": "price",
          "type": "uint256"
        }
      ],
      "name": "NftOffered",
      "type": "event"
    },
    {
      "anonymous": false,
      "inputs": [
        {
          "indexed": true,
          "internalType": "address",
          "name": "nftAddress",
          "type": "address"
        },
        {
          "indexed": true,
          "internalType": "uint256",
          "name": "tokenId",
          "type": "uint256"
        }
      ],
      "name": "NftUnListing",
      "type": "event"
    },
    {
      "anonymous": false,
      "inputs": [
        {
          "indexed": true,
          "internalType": "address",
          "name": "previousOwner",
          "type": "address"
        },
        {
          "indexed": true,
          "internalType": "address",
          "name": "newOwner",
          "type": "address"
        }
      ],
      "name": "OwnershipTransferred",
      "type": "event"
    },
    {
      "inputs": [],
      "name": "BPS",
      "outputs": [
        {
          "internalType": "uint256",
          "name": "",
          "type": "uint256"
        }
      ],
      "stateMutability": "view",
      "type": "function"
    },
    {
      "inputs": [
        {
          "internalType": "address",
          "name": "nftAddress",
          "type": "address"
        },
        {
          "internalType": "uint256",
          "name": "tokenId",
          "type": "uint256"
        },
        {
          "internalType": "uint256",
          "name": "price",
          "type": "uint256"
        }
      ],
      "name": "buy",
      "outputs": [],
      "stateMutability": "nonpayable",
      "type": "function"
    },
    {
      "inputs": [
        {
          "internalType": "address",
          "name": "nftAddress",
          "type": "address"
        },
        {
          "internalType": "uint256",
          "name": "tokenId",
          "type": "uint256"
        }
      ],
      "name": "cancelOffer",
      "outputs": [],
      "stateMutability": "nonpayable",
      "type": "function"
    },
    {
      "inputs": [
        {
          "internalType": "address",
          "name": "nftAddress",
          "type": "address"
        },
        {
          "internalType": "uint256",
          "name": "tokenId",
          "type": "uint256"
        },
        {
          "internalType": "uint256",
          "name": "_newPrice",
          "type": "uint256"
        }
      ],
      "name": "changePrice",
      "outputs": [],
      "stateMutability": "nonpayable",
      "type": "function"
    },
    {
      "inputs": [],
      "name": "fameAddress",
      "outputs": [
        {
          "internalType": "contract IERC20",
          "name": "",
          "type": "address"
        }
      ],
      "stateMutability": "view",
      "type": "function"
    },
    {
      "inputs": [],
      "name": "famePrice",
      "outputs": [
        {
          "internalType": "uint256",
          "name": "",
          "type": "uint256"
        }
      ],
      "stateMutability": "view",
      "type": "function"
    },
    {
      "inputs": [
        {
          "internalType": "address",
          "name": "nftAddress",
          "type": "address"
        },
        {
          "internalType": "uint256",
          "name": "tokenId",
          "type": "uint256"
        }
      ],
      "name": "getAllOfferOfNftByTokenId",
      "outputs": [
        {
          "internalType": "address[]",
          "name": "",
          "type": "address[]"
        },
        {
          "internalType": "uint256[]",
          "name": "",
          "type": "uint256[]"
        }
      ],
      "stateMutability": "view",
      "type": "function"
    },
    {
      "inputs": [
        {
          "internalType": "address",
          "name": "nftAddress",
          "type": "address"
        },
        {
          "internalType": "address",
          "name": "user",
          "type": "address"
        }
      ],
      "name": "getAllOfferOfUser",
      "outputs": [
        {
          "internalType": "uint256[]",
          "name": "",
          "type": "uint256[]"
        },
        {
          "internalType": "uint256[]",
          "name": "",
          "type": "uint256[]"
        }
      ],
      "stateMutability": "view",
      "type": "function"
    },
    {
      "inputs": [
        {
          "internalType": "uint256",
          "name": "price",
          "type": "uint256"
        }
      ],
      "name": "getFee",
      "outputs": [
        {
          "internalType": "uint256",
          "name": "marketFee",
          "type": "uint256"
        }
      ],
      "stateMutability": "view",
      "type": "function"
    },
    {
      "inputs": [
        {
          "internalType": "address",
          "name": "nftAddress",
          "type": "address"
        },
        {
          "internalType": "uint256",
          "name": "tokenId",
          "type": "uint256"
        },
        {
          "internalType": "address",
          "name": "user",
          "type": "address"
        }
      ],
      "name": "getOfferOfNftByAddress",
      "outputs": [
        {
          "internalType": "uint256",
          "name": "",
          "type": "uint256"
        }
      ],
      "stateMutability": "view",
      "type": "function"
    },
    {
      "inputs": [
        {
          "internalType": "address",
          "name": "nftAddress",
          "type": "address"
        },
        {
          "internalType": "uint256",
          "name": "tokenId",
          "type": "uint256"
        },
        {
          "internalType": "uint256",
          "name": "_index",
          "type": "uint256"
        }
      ],
      "name": "getOfferOfNftByIndex",
      "outputs": [
        {
          "internalType": "address",
          "name": "",
          "type": "address"
        },
        {
          "internalType": "uint256",
          "name": "",
          "type": "uint256"
        }
      ],
      "stateMutability": "view",
      "type": "function"
    },
    {
      "inputs": [
        {
          "internalType": "address",
          "name": "nftAddress",
          "type": "address"
        },
        {
          "internalType": "uint256",
          "name": "tokenId",
          "type": "uint256"
        }
      ],
      "name": "getTotalOfferOfNft",
      "outputs": [
        {
          "internalType": "uint256",
          "name": "",
          "type": "uint256"
        }
      ],
      "stateMutability": "view",
      "type": "function"
    },
    {
      "inputs": [],
      "name": "heroAddress",
      "outputs": [
        {
          "internalType": "contract IERC721",
          "name": "",
          "type": "address"
        }
      ],
      "stateMutability": "view",
      "type": "function"
    },
    {
      "inputs": [],
      "name": "landAddress",
      "outputs": [
        {
          "internalType": "contract IERC721",
          "name": "",
          "type": "address"
        }
      ],
      "stateMutability": "view",
      "type": "function"
    },
    {
      "inputs": [
        {
          "internalType": "address",
          "name": "nftAddress",
          "type": "address"
        },
        {
          "internalType": "uint256",
          "name": "tokenId",
          "type": "uint256"
        },
        {
          "internalType": "uint256",
          "name": "price",
          "type": "uint256"
        }
      ],
      "name": "listForSale",
      "outputs": [],
      "stateMutability": "nonpayable",
      "type": "function"
    },
    {
      "inputs": [],
      "name": "marketFeeInBps",
      "outputs": [
        {
          "internalType": "uint256",
          "name": "",
          "type": "uint256"
        }
      ],
      "stateMutability": "view",
      "type": "function"
    },
    {
      "inputs": [],
      "name": "minFeeUSDT",
      "outputs": [
        {
          "internalType": "uint256",
          "name": "",
          "type": "uint256"
        }
      ],
      "stateMutability": "view",
      "type": "function"
    },
    {
      "inputs": [
        {
          "internalType": "address",
          "name": "",
          "type": "address"
        },
        {
          "internalType": "uint256",
          "name": "",
          "type": "uint256"
        }
      ],
      "name": "nftOnSales",
      "outputs": [
        {
          "internalType": "uint256",
          "name": "",
          "type": "uint256"
        }
      ],
      "stateMutability": "view",
      "type": "function"
    },
    {
      "inputs": [
        {
          "internalType": "address",
          "name": "_nftAddress",
          "type": "address"
        },
        {
          "internalType": "uint256",
          "name": "_tokenId",
          "type": "uint256"
        },
        {
          "internalType": "uint256",
          "name": "_price",
          "type": "uint256"
        }
      ],
      "name": "offer",
      "outputs": [],
      "stateMutability": "nonpayable",
      "type": "function"
    },
    {
      "inputs": [],
      "name": "owner",
      "outputs": [
        {
          "internalType": "address",
          "name": "",
          "type": "address"
        }
      ],
      "stateMutability": "view",
      "type": "function"
    },
    {
      "inputs": [],
      "name": "receiveFun",
      "outputs": [
        {
          "internalType": "address",
          "name": "",
          "type": "address"
        }
      ],
      "stateMutability": "view",
      "type": "function"
    },
    {
      "inputs": [],
      "name": "renounceOwnership",
      "outputs": [],
      "stateMutability": "nonpayable",
      "type": "function"
    },
    {
      "inputs": [
        {
          "internalType": "address",
          "name": "_fameAddress",
          "type": "address"
        }
      ],
      "name": "setFameAddress",
      "outputs": [],
      "stateMutability": "nonpayable",
      "type": "function"
    },
    {
      "inputs": [
        {
          "internalType": "uint256",
          "name": "_famePrice",
          "type": "uint256"
        }
      ],
      "name": "setFamePrice",
      "outputs": [],
      "stateMutability": "nonpayable",
      "type": "function"
    },
    {
      "inputs": [
        {
          "internalType": "address",
          "name": "_heroAddress",
          "type": "address"
        }
      ],
      "name": "setHeroAddress",
      "outputs": [],
      "stateMutability": "nonpayable",
      "type": "function"
    },
    {
      "inputs": [
        {
          "internalType": "address",
          "name": "_landAddress",
          "type": "address"
        }
      ],
      "name": "setLandAddress",
      "outputs": [],
      "stateMutability": "nonpayable",
      "type": "function"
    },
    {
      "inputs": [
        {
          "internalType": "uint256",
          "name": "_marketFeeInBps",
          "type": "uint256"
        }
      ],
      "name": "setMarketFeeInBps",
      "outputs": [],
      "stateMutability": "nonpayable",
      "type": "function"
    },
    {
      "inputs": [
        {
          "internalType": "uint256",
          "name": "_minFeeUSDT",
          "type": "uint256"
        }
      ],
      "name": "setMinFeeUSDT",
      "outputs": [],
      "stateMutability": "nonpayable",
      "type": "function"
    },
    {
      "inputs": [
        {
          "internalType": "address",
          "name": "_receiveFun",
          "type": "address"
        }
      ],
      "name": "setReceiveFunAddress",
      "outputs": [],
      "stateMutability": "nonpayable",
      "type": "function"
    },
    {
      "inputs": [
        {
          "internalType": "address",
          "name": "nftAddress",
          "type": "address"
        },
        {
          "internalType": "uint256",
          "name": "tokenId",
          "type": "uint256"
        },
        {
          "internalType": "address",
          "name": "_buyer",
          "type": "address"
        }
      ],
      "name": "takeOffer",
      "outputs": [],
      "stateMutability": "nonpayable",
      "type": "function"
    },
    {
      "inputs": [
        {
          "internalType": "address",
          "name": "newOwner",
          "type": "address"
        }
      ],
      "name": "transferOwnership",
      "outputs": [],
      "stateMutability": "nonpayable",
      "type": "function"
    },
    {
      "inputs": [
        {
          "internalType": "address",
          "name": "nftAddress",
          "type": "address"
        },
        {
          "internalType": "uint256",
          "name": "tokenId",
          "type": "uint256"
        }
      ],
      "name": "unList",
      "outputs": [],
      "stateMutability": "nonpayable",
      "type": "function"
    }
  ],
  "bytecode": "0x60806040526101c26005556101c260065561afc86007553480156200002357600080fd5b5062000044620000386200009260201b60201c565b6200009a60201b60201c565b6001808190555033600b60006101000a81548173ffffffffffffffffffffffffffffffffffffffff021916908373ffffffffffffffffffffffffffffffffffffffff1602179055506200015e565b600033905090565b60008060009054906101000a900473ffffffffffffffffffffffffffffffffffffffff169050816000806101000a81548173ffffffffffffffffffffffffffffffffffffffff021916908373ffffffffffffffffffffffffffffffffffffffff1602179055508173ffffffffffffffffffffffffffffffffffffffff168173ffffffffffffffffffffffffffffffffffffffff167f8be0079c531659141344cd1fd0a4f28419497f9722a3daafe3b4186f6b6457e060405160405180910390a35050565b6144f4806200016e6000396000f3fe608060405234801561001057600080fd5b50600436106101f05760003560e01c80638da5cb5b1161010f578063be926c80116100a2578063f2fde38b11610071578063f2fde38b14610580578063f477b6a81461059c578063fcee45f4146105b8578063fe3329fa146105e8576101f0565b8063be926c80146104e7578063d012bbc314610503578063d5f61f8e14610533578063ebaa051614610564576101f0565b8063a55d6fcf116100de578063a55d6fcf14610460578063a59ac6dd1461047e578063b782edf11461049a578063bd21a1ee146104b6576101f0565b80638da5cb5b146103ec57806391c576341461040a578063a09a795014610426578063a51dabd014610442576101f0565b80635ab801a61161018757806373d68f2f1161015657806373d68f2f1461037a578063741cbae41461039657806374a46050146103b25780638c46046d146103ce576101f0565b80635ab801a6146103165780636eaf880214610334578063715018a614610352578063722fe5de1461035c576101f0565b80631cf9de2e116101c35780631cf9de2e1461027b5780631e5b2874146102ab578063249d39e9146102c757806352f894e4146102e5576101f0565b8063024d4bf8146101f5578063058a56ac14610225578063187051d8146102415780631ce99f341461025f575b600080fd5b61020f600480360381019061020a9190613519565b610604565b60405161021c9190613e2c565b60405180910390f35b61023f600480360381019061023a9190613519565b610666565b005b61024961090a565b6040516102569190613e2c565b60405180910390f35b61027960048036038101906102749190613519565b610910565b005b61029560048036038101906102909190613519565b610a4f565b6040516102a29190613e2c565b60405180910390f35b6102c560048036038101906102c0919061348b565b610a74565b005b6102cf610b77565b6040516102dc9190613e2c565b60405180910390f35b6102ff60048036038101906102fa91906134dd565b610b7d565b60405161030d929190613b5d565b60405180910390f35b61031e610e35565b60405161032b9190613b94565b60405180910390f35b61033c610e5b565b6040516103499190613baf565b60405180910390f35b61035a610e81565b005b610364610f09565b6040516103719190613e2c565b60405180910390f35b610394600480360381019061038f919061361c565b610f0f565b005b6103b060048036038101906103ab91906135a4565b610fc2565b005b6103cc60048036038101906103c791906135a4565b61110c565b005b6103d661159f565b6040516103e39190613baf565b60405180910390f35b6103f46115c5565b6040516104019190613a82565b60405180910390f35b610424600480360381019061041f919061361c565b6115ee565b005b610440600480360381019061043b919061348b565b61166d565b005b61044a61172d565b6040516104579190613e2c565b60405180910390f35b610468611733565b6040516104759190613a82565b60405180910390f35b610498600480360381019061049391906135a4565b611759565b005b6104b460048036038101906104af919061361c565b611a19565b005b6104d060048036038101906104cb9190613519565b611a9f565b6040516104de929190613b26565b60405180910390f35b61050160048036038101906104fc919061348b565b611d2b565b005b61051d60048036038101906105189190613555565b611e2e565b60405161052a9190613e2c565b60405180910390f35b61054d600480360381019061054891906135a4565b611ea1565b60405161055b929190613afd565b60405180910390f35b61057e60048036038101906105799190613555565b611fab565b005b61059a6004803603810190610595919061348b565b61229a565b005b6105b660048036038101906105b1919061348b565b612392565b005b6105d260048036038101906105cd919061361c565b612495565b6040516105df9190613e2c565b60405180910390f35b61060260048036038101906105fd91906135a4565b6124ed565b005b600061065e600360008573ffffffffffffffffffffffffffffffffffffffff1673ffffffffffffffffffffffffffffffffffffffff168152602001908152602001600020600084815260200190815260200160002061276f565b905092915050565b600260015414156106ac576040517f08c379a00000000000000000000000000000000000000000000000000000000081526004016106a390613e0c565b60405180910390fd5b60026001819055506000339050600061071d82600360008773ffffffffffffffffffffffffffffffffffffffff1673ffffffffffffffffffffffffffffffffffffffff168152602001908152602001600020600086815260200190815260200160002061278490919063ffffffff16565b91505060008111610763576040517f08c379a000000000000000000000000000000000000000000000000000000000815260040161075a90613c4c565b60405180910390fd5b6107c582600360008773ffffffffffffffffffffffffffffffffffffffff1673ffffffffffffffffffffffffffffffffffffffff16815260200190815260200160002060008681526020019081526020016000206127c690919063ffffffff16565b5061085483600460008773ffffffffffffffffffffffffffffffffffffffff1673ffffffffffffffffffffffffffffffffffffffff16815260200190815260200160002060003373ffffffffffffffffffffffffffffffffffffffff1673ffffffffffffffffffffffffffffffffffffffff1681526020019081526020016000206127f690919063ffffffff16565b506108a28282600a60009054906101000a900473ffffffffffffffffffffffffffffffffffffffff1673ffffffffffffffffffffffffffffffffffffffff166128109092919063ffffffff16565b8173ffffffffffffffffffffffffffffffffffffffff16838573ffffffffffffffffffffffffffffffffffffffff167f5933c61f9082926788a3814439086b4fa3f49c6641d47773897c5dc4615bec9a60405160405180910390a45050600180819055505050565b60075481565b818161091c8282612896565b6000600260008673ffffffffffffffffffffffffffffffffffffffff1673ffffffffffffffffffffffffffffffffffffffff168152602001908152602001600020600085815260200190815260200160002054116109af576040517f08c379a00000000000000000000000000000000000000000000000000000000081526004016109a690613d8c565b60405180910390fd5b6000600260008673ffffffffffffffffffffffffffffffffffffffff1673ffffffffffffffffffffffffffffffffffffffff168152602001908152602001600020600085815260200190815260200160002081905550828473ffffffffffffffffffffffffffffffffffffffff167f48ef0b0641f87fe7d2cd70b31d1418c9e2a4b9f744b100dd93f03821b918b8ae60405160405180910390a350505050565b6002602052816000526040600020602052806000526040600020600091509150505481565b610a7c612990565b73ffffffffffffffffffffffffffffffffffffffff16610a9a6115c5565b73ffffffffffffffffffffffffffffffffffffffff1614610af0576040517f08c379a0000000000000000000000000000000000000000000000000000000008152600401610ae790613cec565b60405180910390fd5b80600860006101000a81548173ffffffffffffffffffffffffffffffffffffffff021916908373ffffffffffffffffffffffffffffffffffffffff1602179055508073ffffffffffffffffffffffffffffffffffffffff167fc5ecc24688e3fa2bd083e2c7096833a9a7ca5260bae63162d072dd242e23265460405160405180910390a250565b61271081565b6060806000610c06600460008773ffffffffffffffffffffffffffffffffffffffff1673ffffffffffffffffffffffffffffffffffffffff16815260200190815260200160002060008673ffffffffffffffffffffffffffffffffffffffff1673ffffffffffffffffffffffffffffffffffffffff168152602001908152602001600020612998565b905060008167ffffffffffffffff811115610c4a577f4e487b7100000000000000000000000000000000000000000000000000000000600052604160045260246000fd5b604051908082528060200260200182016040528015610c785781602001602082028036833780820191505090505b50905060008267ffffffffffffffff811115610cbd577f4e487b7100000000000000000000000000000000000000000000000000000000600052604160045260246000fd5b604051908082528060200260200182016040528015610ceb5781602001602082028036833780820191505090505b50905060005b83811015610e2457610d8781600460008b73ffffffffffffffffffffffffffffffffffffffff1673ffffffffffffffffffffffffffffffffffffffff16815260200190815260200160002060008a73ffffffffffffffffffffffffffffffffffffffff1673ffffffffffffffffffffffffffffffffffffffff1681526020019081526020016000206129ad90919063ffffffff16565b848381518110610dc0577f4e487b7100000000000000000000000000000000000000000000000000000000600052603260045260246000fd5b60200260200101848481518110610e00577f4e487b7100000000000000000000000000000000000000000000000000000000600052603260045260246000fd5b60200260200101828152508281525050508080610e1c9061406d565b915050610cf1565b508181945094505050509250929050565b600a60009054906101000a900473ffffffffffffffffffffffffffffffffffffffff1681565b600860009054906101000a900473ffffffffffffffffffffffffffffffffffffffff1681565b610e89612990565b73ffffffffffffffffffffffffffffffffffffffff16610ea76115c5565b73ffffffffffffffffffffffffffffffffffffffff1614610efd576040517f08c379a0000000000000000000000000000000000000000000000000000000008152600401610ef490613cec565b60405180910390fd5b610f0760006129d9565b565b60065481565b610f17612990565b73ffffffffffffffffffffffffffffffffffffffff16610f356115c5565b73ffffffffffffffffffffffffffffffffffffffff1614610f8b576040517f08c379a0000000000000000000000000000000000000000000000000000000008152600401610f8290613cec565b60405180910390fd5b80600581905550807f409cb01d6139b53bbdd882be790bbc230fda0a2d899ddc8283a1eacae87d40db60405160405180910390a250565b8282610fce8282612896565b6000600260008773ffffffffffffffffffffffffffffffffffffffff1673ffffffffffffffffffffffffffffffffffffffff16815260200190815260200160002060008681526020019081526020016000205411611061576040517f08c379a000000000000000000000000000000000000000000000000000000000815260040161105890613d8c565b60405180910390fd5b82600260008773ffffffffffffffffffffffffffffffffffffffff1673ffffffffffffffffffffffffffffffffffffffff168152602001908152602001600020600086815260200190815260200160002081905550838573ffffffffffffffffffffffffffffffffffffffff167fd1eed60b19e893d9f9d61bbc608c6c4bde3adfb0384a325629a2120f1265de5e856040516110fd9190613e2c565b60405180910390a35050505050565b60026001541415611152576040517f08c379a000000000000000000000000000000000000000000000000000000000815260040161114990613e0c565b60405180910390fd5b6002600181905550600061116582612495565b9050808210156111aa576040517f08c379a00000000000000000000000000000000000000000000000000000000081526004016111a190613d6c565b60405180910390fd5b6000339050600061121382600360008973ffffffffffffffffffffffffffffffffffffffff1673ffffffffffffffffffffffffffffffffffffffff168152602001908152602001600020600088815260200190815260200160002061278490919063ffffffff16565b915050600081851090506000816112355782866112309190613f76565b611238565b60005b90508773ffffffffffffffffffffffffffffffffffffffff16636352211e886040518263ffffffff1660e01b81526004016112739190613e2c565b60206040518083038186803b15801561128b57600080fd5b505afa15801561129f573d6000803e3d6000fd5b505050506040513d601f19601f820116820180604052508101906112c391906134b4565b73ffffffffffffffffffffffffffffffffffffffff168473ffffffffffffffffffffffffffffffffffffffff161415611331576040517f08c379a000000000000000000000000000000000000000000000000000000000815260040161132890613c6c565b60405180910390fd5b82861415611374576040517f08c379a000000000000000000000000000000000000000000000000000000000815260040161136b90613ccc565b60405180910390fd5b60008111156113cd576113cc333083600a60009054906101000a900473ffffffffffffffffffffffffffffffffffffffff1673ffffffffffffffffffffffffffffffffffffffff16612a9d909392919063ffffffff16565b5b6114313387600360008c73ffffffffffffffffffffffffffffffffffffffff1673ffffffffffffffffffffffffffffffffffffffff16815260200190815260200160002060008b8152602001908152602001600020612b269092919063ffffffff16565b506114c28787600460008c73ffffffffffffffffffffffffffffffffffffffff1673ffffffffffffffffffffffffffffffffffffffff16815260200190815260200160002060003373ffffffffffffffffffffffffffffffffffffffff1673ffffffffffffffffffffffffffffffffffffffff168152602001908152602001600020612b5b9092919063ffffffff16565b50811561152857600086846114d79190613f76565b90506115263382600a60009054906101000a900473ffffffffffffffffffffffffffffffffffffffff1673ffffffffffffffffffffffffffffffffffffffff166128109092919063ffffffff16565b505b8373ffffffffffffffffffffffffffffffffffffffff16878973ffffffffffffffffffffffffffffffffffffffff167f7c9965155d2a450742cca7ca4d4558b5156fab49ef1c8fc33bcda9aed27ad97c896040516115869190613e2c565b60405180910390a4505050505060018081905550505050565b600960009054906101000a900473ffffffffffffffffffffffffffffffffffffffff1681565b60008060009054906101000a900473ffffffffffffffffffffffffffffffffffffffff16905090565b6115f6612990565b73ffffffffffffffffffffffffffffffffffffffff166116146115c5565b73ffffffffffffffffffffffffffffffffffffffff161461166a576040517f08c379a000000000000000000000000000000000000000000000000000000000815260040161166190613cec565b60405180910390fd5b50565b611675612990565b73ffffffffffffffffffffffffffffffffffffffff166116936115c5565b73ffffffffffffffffffffffffffffffffffffffff16146116e9576040517f08c379a00000000000000000000000000000000000000000000000000000000081526004016116e090613cec565b60405180910390fd5b80600a60006101000a81548173ffffffffffffffffffffffffffffffffffffffff021916908373ffffffffffffffffffffffffffffffffffffffff16021790555050565b60055481565b600b60009054906101000a900473ffffffffffffffffffffffffffffffffffffffff1681565b6002600154141561179f576040517f08c379a000000000000000000000000000000000000000000000000000000000815260040161179690613e0c565b60405180910390fd5b60026001819055506000600260008573ffffffffffffffffffffffffffffffffffffffff1673ffffffffffffffffffffffffffffffffffffffff168152602001908152602001600020600084815260200190815260200160002054905080821461183e576040517f08c379a000000000000000000000000000000000000000000000000000000000815260040161183590613d0c565b60405180910390fd5b60008473ffffffffffffffffffffffffffffffffffffffff16636352211e856040518263ffffffff1660e01b81526004016118799190613e2c565b60206040518083038186803b15801561189157600080fd5b505afa1580156118a5573d6000803e3d6000fd5b505050506040513d601f19601f820116820180604052508101906118c991906134b4565b905060003390508173ffffffffffffffffffffffffffffffffffffffff168173ffffffffffffffffffffffffffffffffffffffff16141561193f576040517f08c379a000000000000000000000000000000000000000000000000000000000815260040161193690613dcc565b60405180910390fd5b6000600260008873ffffffffffffffffffffffffffffffffffffffff1673ffffffffffffffffffffffffffffffffffffffff1681526020019081526020016000206000878152602001908152602001600020819055506119a28686838588612b7a565b8073ffffffffffffffffffffffffffffffffffffffff16858773ffffffffffffffffffffffffffffffffffffffff167f49bee9ee895178de1b4d2fa97bcf8bd339abbd8abf6de8cc4186b10474328c628588604051611a02929190613afd565b60405180910390a450505060018081905550505050565b611a21612990565b73ffffffffffffffffffffffffffffffffffffffff16611a3f6115c5565b73ffffffffffffffffffffffffffffffffffffffff1614611a95576040517f08c379a0000000000000000000000000000000000000000000000000000000008152600401611a8c90613cec565b60405180910390fd5b8060068190555050565b6060806000611afc600360008773ffffffffffffffffffffffffffffffffffffffff1673ffffffffffffffffffffffffffffffffffffffff168152602001908152602001600020600086815260200190815260200160002061276f565b905060008167ffffffffffffffff811115611b40577f4e487b7100000000000000000000000000000000000000000000000000000000600052604160045260246000fd5b604051908082528060200260200182016040528015611b6e5781602001602082028036833780820191505090505b50905060008267ffffffffffffffff811115611bb3577f4e487b7100000000000000000000000000000000000000000000000000000000600052604160045260246000fd5b604051908082528060200260200182016040528015611be15781602001602082028036833780820191505090505b50905060005b83811015611d1a57611c5181600360008b73ffffffffffffffffffffffffffffffffffffffff1673ffffffffffffffffffffffffffffffffffffffff16815260200190815260200160002060008a8152602001908152602001600020612d7990919063ffffffff16565b848381518110611c8a577f4e487b7100000000000000000000000000000000000000000000000000000000600052603260045260246000fd5b60200260200101848481518110611cca577f4e487b7100000000000000000000000000000000000000000000000000000000600052603260045260246000fd5b60200260200101828152508273ffffffffffffffffffffffffffffffffffffffff1673ffffffffffffffffffffffffffffffffffffffff1681525050508080611d129061406d565b915050611be7565b508181945094505050509250929050565b611d33612990565b73ffffffffffffffffffffffffffffffffffffffff16611d516115c5565b73ffffffffffffffffffffffffffffffffffffffff1614611da7576040517f08c379a0000000000000000000000000000000000000000000000000000000008152600401611d9e90613cec565b60405180910390fd5b80600960006101000a81548173ffffffffffffffffffffffffffffffffffffffff021916908373ffffffffffffffffffffffffffffffffffffffff1602179055508073ffffffffffffffffffffffffffffffffffffffff167fc5ecc24688e3fa2bd083e2c7096833a9a7ca5260bae63162d072dd242e23265460405160405180910390a250565b600080611e9383600360008873ffffffffffffffffffffffffffffffffffffffff1673ffffffffffffffffffffffffffffffffffffffff168152602001908152602001600020600087815260200190815260200160002061278490919063ffffffff16565b915050809150509392505050565b600080611efc600360008773ffffffffffffffffffffffffffffffffffffffff1673ffffffffffffffffffffffffffffffffffffffff168152602001908152602001600020600086815260200190815260200160002061276f565b8310611f3d576040517f08c379a0000000000000000000000000000000000000000000000000000000008152600401611f3490613dac565b60405180910390fd5b611f9f83600360008873ffffffffffffffffffffffffffffffffffffffff1673ffffffffffffffffffffffffffffffffffffffff1681526020019081526020016000206000878152602001908152602001600020612d7990919063ffffffff16565b91509150935093915050565b8282611fb78282612896565b60026001541415611ffd576040517f08c379a0000000000000000000000000000000000000000000000000000000008152600401611ff490613e0c565b60405180910390fd5b6002600181905550600061206984600360008973ffffffffffffffffffffffffffffffffffffffff1673ffffffffffffffffffffffffffffffffffffffff168152602001908152602001600020600088815260200190815260200160002061278490919063ffffffff16565b9150506000339050600082116120b4576040517f08c379a00000000000000000000000000000000000000000000000000000000081526004016120ab90613c4c565b60405180910390fd5b8073ffffffffffffffffffffffffffffffffffffffff168573ffffffffffffffffffffffffffffffffffffffff161415612123576040517f08c379a000000000000000000000000000000000000000000000000000000000815260040161211a90613cac565b60405180910390fd5b61218585600360008a73ffffffffffffffffffffffffffffffffffffffff1673ffffffffffffffffffffffffffffffffffffffff16815260200190815260200160002060008981526020019081526020016000206127c690919063ffffffff16565b5061221486600460008a73ffffffffffffffffffffffffffffffffffffffff1673ffffffffffffffffffffffffffffffffffffffff16815260200190815260200160002060003373ffffffffffffffffffffffffffffffffffffffff1673ffffffffffffffffffffffffffffffffffffffff1681526020019081526020016000206127f690919063ffffffff16565b506122228787878486612b7a565b8473ffffffffffffffffffffffffffffffffffffffff16868873ffffffffffffffffffffffffffffffffffffffff167f49bee9ee895178de1b4d2fa97bcf8bd339abbd8abf6de8cc4186b10474328c628486604051612282929190613afd565b60405180910390a45050600180819055505050505050565b6122a2612990565b73ffffffffffffffffffffffffffffffffffffffff166122c06115c5565b73ffffffffffffffffffffffffffffffffffffffff1614612316576040517f08c379a000000000000000000000000000000000000000000000000000000000815260040161230d90613cec565b60405180910390fd5b600073ffffffffffffffffffffffffffffffffffffffff168173ffffffffffffffffffffffffffffffffffffffff161415612386576040517f08c379a000000000000000000000000000000000000000000000000000000000815260040161237d90613c0c565b60405180910390fd5b61238f816129d9565b50565b61239a612990565b73ffffffffffffffffffffffffffffffffffffffff166123b86115c5565b73ffffffffffffffffffffffffffffffffffffffff161461240e576040517f08c379a000000000000000000000000000000000000000000000000000000000815260040161240590613cec565b60405180910390fd5b80600b60006101000a81548173ffffffffffffffffffffffffffffffffffffffff021916908373ffffffffffffffffffffffffffffffffffffffff1602179055508073ffffffffffffffffffffffffffffffffffffffff167f8fb89fd9754d6435e040049b522e954affea9eaa4628f7610cb915d1636b3c9560405160405180910390a250565b6000612710600554836124a89190613f1c565b6124b29190613eeb565b90506000670de0b6b3a76400006006546007546124cf9190613eeb565b6124d99190613f1c565b9050808210156124e7578091505b50919050565b82826124f98282612896565b6000831161253c576040517f08c379a000000000000000000000000000000000000000000000000000000000815260040161253390613c2c565b60405180910390fd5b3073ffffffffffffffffffffffffffffffffffffffff168573ffffffffffffffffffffffffffffffffffffffff1663081812fc866040518263ffffffff1660e01b815260040161258c9190613e2c565b60206040518083038186803b1580156125a457600080fd5b505afa1580156125b8573d6000803e3d6000fd5b505050506040513d601f19601f820116820180604052508101906125dc91906134b4565b73ffffffffffffffffffffffffffffffffffffffff16148061268557508473ffffffffffffffffffffffffffffffffffffffff1663e985e9c533306040518363ffffffff1660e01b8152600401612634929190613a9d565b60206040518083038186803b15801561264c57600080fd5b505afa158015612660573d6000803e3d6000fd5b505050506040513d601f19601f8201168201806040525081019061268491906135f3565b5b6126c4576040517f08c379a00000000000000000000000000000000000000000000000000000000081526004016126bb90613bec565b60405180910390fd5b82600260008773ffffffffffffffffffffffffffffffffffffffff1673ffffffffffffffffffffffffffffffffffffffff168152602001908152602001600020600086815260200190815260200160002081905550838573ffffffffffffffffffffffffffffffffffffffff167f273e31d7331c6c6cf605f827ac0c5d0886019987da7c1ecd65843a7a62f5a512856040516127609190613e2c565b60405180910390a35050505050565b600061277d82600001612da5565b9050919050565b6000806000806127b0866000018673ffffffffffffffffffffffffffffffffffffffff1660001b612dba565b91509150818160001c9350935050509250929050565b60006127ee836000018373ffffffffffffffffffffffffffffffffffffffff1660001b612e0a565b905092915050565b6000612808836000018360001b612e0a565b905092915050565b6128918363a9059cbb60e01b848460405160240161282f929190613afd565b604051602081830303815290604052907bffffffffffffffffffffffffffffffffffffffffffffffffffffffff19166020820180517bffffffffffffffffffffffffffffffffffffffffffffffffffffffff8381831617835250505050612e43565b505050565b3373ffffffffffffffffffffffffffffffffffffffff168273ffffffffffffffffffffffffffffffffffffffff16636352211e836040518263ffffffff1660e01b81526004016128e69190613e2c565b60206040518083038186803b1580156128fe57600080fd5b505afa158015612912573d6000803e3d6000fd5b505050506040513d601f19601f8201168201806040525081019061293691906134b4565b73ffffffffffffffffffffffffffffffffffffffff161461298c576040517f08c379a000000000000000000000000000000000000000000000000000000000815260040161298390613d2c565b60405180910390fd5b5050565b600033905090565b60006129a682600001612da5565b9050919050565b6000806000806129c08660000186612f0a565b915091508160001c8160001c9350935050509250929050565b60008060009054906101000a900473ffffffffffffffffffffffffffffffffffffffff169050816000806101000a81548173ffffffffffffffffffffffffffffffffffffffff021916908373ffffffffffffffffffffffffffffffffffffffff1602179055508173ffffffffffffffffffffffffffffffffffffffff168173ffffffffffffffffffffffffffffffffffffffff167f8be0079c531659141344cd1fd0a4f28419497f9722a3daafe3b4186f6b6457e060405160405180910390a35050565b612b20846323b872dd60e01b858585604051602401612abe93929190613ac6565b604051602081830303815290604052907bffffffffffffffffffffffffffffffffffffffffffffffffffffffff19166020820180517bffffffffffffffffffffffffffffffffffffffffffffffffffffffff8381831617835250505050612e43565b50505050565b6000612b52846000018473ffffffffffffffffffffffffffffffffffffffff1660001b8460001b612f4a565b90509392505050565b6000612b71846000018460001b8460001b612f4a565b90509392505050565b6000612b8582612495565b9050612be184848385612b989190613f76565b600a60009054906101000a900473ffffffffffffffffffffffffffffffffffffffff1673ffffffffffffffffffffffffffffffffffffffff16612a9d909392919063ffffffff16565b612c5284600b60009054906101000a900473ffffffffffffffffffffffffffffffffffffffff1683600a60009054906101000a900473ffffffffffffffffffffffffffffffffffffffff1673ffffffffffffffffffffffffffffffffffffffff16612a9d909392919063ffffffff16565b6000600260008873ffffffffffffffffffffffffffffffffffffffff1673ffffffffffffffffffffffffffffffffffffffff1681526020019081526020016000206000878152602001908152602001600020541115612d02576000600260008873ffffffffffffffffffffffffffffffffffffffff1673ffffffffffffffffffffffffffffffffffffffff1681526020019081526020016000206000878152602001908152602001600020819055505b8573ffffffffffffffffffffffffffffffffffffffff166342842e0e8486886040518463ffffffff1660e01b8152600401612d3f93929190613ac6565b600060405180830381600087803b158015612d5957600080fd5b505af1158015612d6d573d6000803e3d6000fd5b50505050505050505050565b600080600080612d8c8660000186612f0a565b915091508160001c8160001c9350935050509250929050565b6000612db382600001612f85565b9050919050565b60008060008460020160008581526020019081526020016000205490506000801b811415612dfa57612dec8585612f9a565b6000801b9250925050612e03565b60018192509250505b9250929050565b600082600201600083815260200190815260200160002060009055612e3b8284600001612fba90919063ffffffff16565b905092915050565b6000612ea5826040518060400160405280602081526020017f5361666545524332303a206c6f772d6c6576656c2063616c6c206661696c65648152508573ffffffffffffffffffffffffffffffffffffffff16612fd19092919063ffffffff16565b9050600081511115612f055780806020019051810190612ec591906135f3565b612f04576040517f08c379a0000000000000000000000000000000000000000000000000000000008152600401612efb90613dec565b60405180910390fd5b5b505050565b6000806000612f258486600001612fe990919063ffffffff16565b9050808560020160008381526020019081526020016000205492509250509250929050565b60008184600201600085815260200190815260200160002081905550612f7c838560000161300090919063ffffffff16565b90509392505050565b6000612f9382600001613017565b9050919050565b6000612fb2828460000161302890919063ffffffff16565b905092915050565b6000612fc9836000018361303f565b905092915050565b6060612fe084846000856131c5565b90509392505050565b6000612ff883600001836132d9565b905092915050565b600061300f836000018361332a565b905092915050565b600081600001805490509050919050565b6000613037836000018361339a565b905092915050565b600080836001016000848152602001908152602001600020549050600081146131b95760006001826130719190613f76565b90506000600186600001805490506130899190613f76565b90508181146131445760008660000182815481106130d0577f4e487b7100000000000000000000000000000000000000000000000000000000600052603260045260246000fd5b906000526020600020015490508087600001848154811061311a577f4e487b7100000000000000000000000000000000000000000000000000000000600052603260045260246000fd5b90600052602060002001819055508387600101600083815260200190815260200160002081905550505b8560000180548061317e577f4e487b7100000000000000000000000000000000000000000000000000000000600052603160045260246000fd5b6001900381819060005260206000200160009055905585600101600086815260200190815260200160002060009055600193505050506131bf565b60009150505b92915050565b60608247101561320a576040517f08c379a000000000000000000000000000000000000000000000000000000000815260040161320190613c8c565b60405180910390fd5b613213856133bd565b613252576040517f08c379a000000000000000000000000000000000000000000000000000000000815260040161324990613d4c565b60405180910390fd5b6000808673ffffffffffffffffffffffffffffffffffffffff16858760405161327b9190613a6b565b60006040518083038185875af1925050503d80600081146132b8576040519150601f19603f3d011682016040523d82523d6000602084013e6132bd565b606091505b50915091506132cd8282866133d0565b92505050949350505050565b6000826000018281548110613317577f4e487b7100000000000000000000000000000000000000000000000000000000600052603260045260246000fd5b9060005260206000200154905092915050565b6000613336838361339a565b61338f578260000182908060018154018082558091505060019003906000526020600020016000909190919091505582600001805490508360010160008481526020019081526020016000208190555060019050613394565b600090505b92915050565b600080836001016000848152602001908152602001600020541415905092915050565b600080823b905060008111915050919050565b606083156133e057829050613430565b6000835111156133f35782518084602001fd5b816040517f08c379a00000000000000000000000000000000000000000000000000000000081526004016134279190613bca565b60405180910390fd5b9392505050565b60008135905061344681614479565b92915050565b60008151905061345b81614479565b92915050565b60008151905061347081614490565b92915050565b600081359050613485816144a7565b92915050565b60006020828403121561349d57600080fd5b60006134ab84828501613437565b91505092915050565b6000602082840312156134c657600080fd5b60006134d48482850161344c565b91505092915050565b600080604083850312156134f057600080fd5b60006134fe85828601613437565b925050602061350f85828601613437565b9150509250929050565b6000806040838503121561352c57600080fd5b600061353a85828601613437565b925050602061354b85828601613476565b9150509250929050565b60008060006060848603121561356a57600080fd5b600061357886828701613437565b935050602061358986828701613476565b925050604061359a86828701613437565b9150509250925092565b6000806000606084860312156135b957600080fd5b60006135c786828701613437565b93505060206135d886828701613476565b92505060406135e986828701613476565b9150509250925092565b60006020828403121561360557600080fd5b600061361384828501613461565b91505092915050565b60006020828403121561362e57600080fd5b600061363c84828501613476565b91505092915050565b60006136518383613675565b60208301905092915050565b60006136698383613a4d565b60208301905092915050565b61367e81613faa565b82525050565b61368d81613faa565b82525050565b600061369e82613e67565b6136a88185613ead565b93506136b383613e47565b8060005b838110156136e45781516136cb8882613645565b97506136d683613e93565b9250506001810190506136b7565b5085935050505092915050565b60006136fc82613e72565b6137068185613ebe565b935061371183613e57565b8060005b83811015613742578151613729888261365d565b975061373483613ea0565b925050600181019050613715565b5085935050505092915050565b600061375a82613e7d565b6137648185613ecf565b935061377481856020860161403a565b80840191505092915050565b61378981613ff2565b82525050565b61379881614016565b82525050565b60006137a982613e88565b6137b38185613eda565b93506137c381856020860161403a565b6137cc81614114565b840191505092915050565b60006137e4601383613eda565b91506137ef82614125565b602082019050919050565b6000613807602683613eda565b91506138128261414e565b604082019050919050565b600061382a601183613eda565b91506138358261419d565b602082019050919050565b600061384d601283613eda565b9150613858826141c6565b602082019050919050565b6000613870601683613eda565b915061387b826141ef565b602082019050919050565b6000613893602683613eda565b915061389e82614218565b604082019050919050565b60006138b6601b83613eda565b91506138c182614267565b602082019050919050565b60006138d9600e83613eda565b91506138e482614290565b602082019050919050565b60006138fc602083613eda565b9150613907826142b9565b602082019050919050565b600061391f601283613eda565b915061392a826142e2565b602082019050919050565b6000613942601083613eda565b915061394d8261430b565b602082019050919050565b6000613965601d83613eda565b915061397082614334565b602082019050919050565b6000613988601883613eda565b91506139938261435d565b602082019050919050565b60006139ab600e83613eda565b91506139b682614386565b602082019050919050565b60006139ce601183613eda565b91506139d9826143af565b602082019050919050565b60006139f1601783613eda565b91506139fc826143d8565b602082019050919050565b6000613a14602a83613eda565b9150613a1f82614401565b604082019050919050565b6000613a37601f83613eda565b9150613a4282614450565b602082019050919050565b613a5681613fe8565b82525050565b613a6581613fe8565b82525050565b6000613a77828461374f565b915081905092915050565b6000602082019050613a976000830184613684565b92915050565b6000604082019050613ab26000830185613684565b613abf6020830184613684565b9392505050565b6000606082019050613adb6000830186613684565b613ae86020830185613684565b613af56040830184613a5c565b949350505050565b6000604082019050613b126000830185613684565b613b1f6020830184613a5c565b9392505050565b60006040820190508181036000830152613b408185613693565b90508181036020830152613b5481846136f1565b90509392505050565b60006040820190508181036000830152613b7781856136f1565b90508181036020830152613b8b81846136f1565b90509392505050565b6000602082019050613ba96000830184613780565b92915050565b6000602082019050613bc4600083018461378f565b92915050565b60006020820190508181036000830152613be4818461379e565b905092915050565b60006020820190508181036000830152613c05816137d7565b9050919050565b60006020820190508181036000830152613c25816137fa565b9050919050565b60006020820190508181036000830152613c458161381d565b9050919050565b60006020820190508181036000830152613c6581613840565b9050919050565b60006020820190508181036000830152613c8581613863565b9050919050565b60006020820190508181036000830152613ca581613886565b9050919050565b60006020820190508181036000830152613cc5816138a9565b9050919050565b60006020820190508181036000830152613ce5816138cc565b9050919050565b60006020820190508181036000830152613d05816138ef565b9050919050565b60006020820190508181036000830152613d2581613912565b9050919050565b60006020820190508181036000830152613d4581613935565b9050919050565b60006020820190508181036000830152613d6581613958565b9050919050565b60006020820190508181036000830152613d858161397b565b9050919050565b60006020820190508181036000830152613da58161399e565b9050919050565b60006020820190508181036000830152613dc5816139c1565b9050919050565b60006020820190508181036000830152613de5816139e4565b9050919050565b60006020820190508181036000830152613e0581613a07565b9050919050565b60006020820190508181036000830152613e2581613a2a565b9050919050565b6000602082019050613e416000830184613a5c565b92915050565b6000819050602082019050919050565b6000819050602082019050919050565b600081519050919050565b600081519050919050565b600081519050919050565b600081519050919050565b6000602082019050919050565b6000602082019050919050565b600082825260208201905092915050565b600082825260208201905092915050565b600081905092915050565b600082825260208201905092915050565b6000613ef682613fe8565b9150613f0183613fe8565b925082613f1157613f106140e5565b5b828204905092915050565b6000613f2782613fe8565b9150613f3283613fe8565b9250817fffffffffffffffffffffffffffffffffffffffffffffffffffffffffffffffff0483118215151615613f6b57613f6a6140b6565b5b828202905092915050565b6000613f8182613fe8565b9150613f8c83613fe8565b925082821015613f9f57613f9e6140b6565b5b828203905092915050565b6000613fb582613fc8565b9050919050565b60008115159050919050565b600073ffffffffffffffffffffffffffffffffffffffff82169050919050565b6000819050919050565b6000613ffd82614004565b9050919050565b600061400f82613fc8565b9050919050565b600061402182614028565b9050919050565b600061403382613fc8565b9050919050565b60005b8381101561405857808201518184015260208101905061403d565b83811115614067576000848401525b50505050565b600061407882613fe8565b91507fffffffffffffffffffffffffffffffffffffffffffffffffffffffffffffffff8214156140ab576140aa6140b6565b5b600182019050919050565b7f4e487b7100000000000000000000000000000000000000000000000000000000600052601160045260246000fd5b7f4e487b7100000000000000000000000000000000000000000000000000000000600052601260045260246000fd5b6000601f19601f8301169050919050565b7f464d3a207265717569726520617070726f766500000000000000000000000000600082015250565b7f4f776e61626c653a206e6577206f776e657220697320746865207a65726f206160008201527f6464726573730000000000000000000000000000000000000000000000000000602082015250565b7f464d3a20707269636520696e76616c6964000000000000000000000000000000600082015250565b7f464d3a206e6f206f6666657220666f756e640000000000000000000000000000600082015250565b7f464d3a206f776e65722063616e6e6f74206f6666657200000000000000000000600082015250565b7f416464726573733a20696e73756666696369656e742062616c616e636520666f60008201527f722063616c6c0000000000000000000000000000000000000000000000000000602082015250565b7f464d3a2063616e6e6f742062757920796f7572206f776e206e66740000000000600082015250565b7f464d3a2073616d65206f66666572000000000000000000000000000000000000600082015250565b7f4f776e61626c653a2063616c6c6572206973206e6f7420746865206f776e6572600082015250565b7f464d3a20616d6f756e7420696e76616c69640000000000000000000000000000600082015250565b7f464d3a6e6f74206e6674206f776e657200000000000000000000000000000000600082015250565b7f416464726573733a2063616c6c20746f206e6f6e2d636f6e7472616374000000600082015250565b7f464d3a207072696365206d757374203e206d696e206665650000000000000000600082015250565b7f464d3a206e6f74206c6973746564000000000000000000000000000000000000600082015250565b7f464d3a206f7574206f6620626f756e6473000000000000000000000000000000600082015250565b7f464d3a2063616e6e6f742062757920796f7572206e6674000000000000000000600082015250565b7f5361666545524332303a204552433230206f7065726174696f6e20646964206e60008201527f6f74207375636365656400000000000000000000000000000000000000000000602082015250565b7f5265656e7472616e637947756172643a207265656e7472616e742063616c6c00600082015250565b61448281613faa565b811461448d57600080fd5b50565b61449981613fbc565b81146144a457600080fd5b50565b6144b081613fe8565b81146144bb57600080fd5b5056fea2646970667358221220ec97b1aa30e98f421c9cff6228cc233b0e733cd53fcff9cc710bc7e2629bec8764736f6c63430008040033",
  "linkReferences": {},
  "deployedLinkReferences": {}
}