{
  "_format": "hh-sol-artifact-1",
  "contractName": "HeroB",
  "sourceName": "contracts/HeroB.sol",
  "abi": [
    {
      "inputs": [],
      "stateMutability": "nonpayable",
      "type": "constructor"
    },
    {
      "anonymous": false,
      "inputs": [
        {
          "indexed": true,
          "internalType": "address",
          "name": "owner",
          "type": "address"
        },
        {
          "indexed": true,
          "internalType": "address",
          "name": "approved",
          "type": "address"
        },
        {
          "indexed": true,
          "internalType": "uint256",
          "name": "tokenId",
          "type": "uint256"
        }
      ],
      "name": "Approval",
      "type": "event"
    },
    {
      "anonymous": false,
      "inputs": [
        {
          "indexed": true,
          "internalType": "address",
          "name": "owner",
          "type": "address"
        },
        {
          "indexed": true,
          "internalType": "address",
          "name": "operator",
          "type": "address"
        },
        {
          "indexed": false,
          "internalType": "bool",
          "name": "approved",
          "type": "bool"
        }
      ],
      "name": "ApprovalForAll",
      "type": "event"
    },
    {
      "anonymous": false,
      "inputs": [
        {
          "indexed": true,
          "internalType": "uint256",
          "name": "tokenId",
          "type": "uint256"
        },
        {
          "indexed": true,
          "internalType": "address",
          "name": "to",
          "type": "address"
        }
      ],
      "name": "Burn",
      "type": "event"
    },
    {
      "anonymous": false,
      "inputs": [
        {
          "indexed": true,
          "internalType": "bytes32",
          "name": "role",
          "type": "bytes32"
        },
        {
          "indexed": true,
          "internalType": "bytes32",
          "name": "previousAdminRole",
          "type": "bytes32"
        },
        {
          "indexed": true,
          "internalType": "bytes32",
          "name": "newAdminRole",
          "type": "bytes32"
        }
      ],
      "name": "RoleAdminChanged",
      "type": "event"
    },
    {
      "anonymous": false,
      "inputs": [
        {
          "indexed": true,
          "internalType": "bytes32",
          "name": "role",
          "type": "bytes32"
        },
        {
          "indexed": true,
          "internalType": "address",
          "name": "account",
          "type": "address"
        },
        {
          "indexed": true,
          "internalType": "address",
          "name": "sender",
          "type": "address"
        }
      ],
      "name": "RoleGranted",
      "type": "event"
    },
    {
      "anonymous": false,
      "inputs": [
        {
          "indexed": true,
          "internalType": "bytes32",
          "name": "role",
          "type": "bytes32"
        },
        {
          "indexed": true,
          "internalType": "address",
          "name": "account",
          "type": "address"
        },
        {
          "indexed": true,
          "internalType": "address",
          "name": "sender",
          "type": "address"
        }
      ],
      "name": "RoleRevoked",
      "type": "event"
    },
    {
      "anonymous": false,
      "inputs": [
        {
          "indexed": true,
          "internalType": "address",
          "name": "from",
          "type": "address"
        },
        {
          "indexed": true,
          "internalType": "address",
          "name": "to",
          "type": "address"
        },
        {
          "indexed": true,
          "internalType": "uint256",
          "name": "tokenId",
          "type": "uint256"
        }
      ],
      "name": "Transfer",
      "type": "event"
    },
    {
      "inputs": [],
      "name": "DEFAULT_ADMIN_ROLE",
      "outputs": [
        {
          "internalType": "bytes32",
          "name": "",
          "type": "bytes32"
        }
      ],
      "stateMutability": "view",
      "type": "function"
    },
    {
      "inputs": [],
      "name": "MINTER_ROLE",
      "outputs": [
        {
          "internalType": "bytes32",
          "name": "",
          "type": "bytes32"
        }
      ],
      "stateMutability": "view",
      "type": "function"
    },
    {
      "inputs": [
        {
          "internalType": "address",
          "name": "_signer",
          "type": "address"
        }
      ],
      "name": "addSigner",
      "outputs": [],
      "stateMutability": "nonpayable",
      "type": "function"
    },
    {
      "inputs": [
        {
          "internalType": "address",
          "name": "to",
          "type": "address"
        },
        {
          "internalType": "uint256",
          "name": "tokenId",
          "type": "uint256"
        }
      ],
      "name": "approve",
      "outputs": [],
      "stateMutability": "nonpayable",
      "type": "function"
    },
    {
      "inputs": [
        {
          "internalType": "address",
          "name": "owner",
          "type": "address"
        }
      ],
      "name": "balanceOf",
      "outputs": [
        {
          "internalType": "uint256",
          "name": "",
          "type": "uint256"
        }
      ],
      "stateMutability": "view",
      "type": "function"
    },
    {
      "inputs": [
        {
          "internalType": "uint256",
          "name": "tokenId",
          "type": "uint256"
        },
        {
          "internalType": "address",
          "name": "to",
          "type": "address"
        }
      ],
      "name": "burn",
      "outputs": [],
      "stateMutability": "nonpayable",
      "type": "function"
    },
    {
      "inputs": [
        {
          "internalType": "address",
          "name": "to",
          "type": "address"
        },
        {
          "internalType": "uint256",
          "name": "heroId",
          "type": "uint256"
        },
        {
          "internalType": "bytes",
          "name": "signature",
          "type": "bytes"
        }
      ],
      "name": "claimHero",
      "outputs": [],
      "stateMutability": "nonpayable",
      "type": "function"
    },
    {
      "inputs": [],
      "name": "fameAddress",
      "outputs": [
        {
          "internalType": "contract IERC20",
          "name": "",
          "type": "address"
        }
      ],
      "stateMutability": "view",
      "type": "function"
    },
    {
      "inputs": [],
      "name": "famePrice",
      "outputs": [
        {
          "internalType": "uint256",
          "name": "",
          "type": "uint256"
        }
      ],
      "stateMutability": "view",
      "type": "function"
    },
    {
      "inputs": [],
      "name": "feeUSDT",
      "outputs": [
        {
          "internalType": "uint256",
          "name": "",
          "type": "uint256"
        }
      ],
      "stateMutability": "view",
      "type": "function"
    },
    {
      "inputs": [
        {
          "internalType": "uint256",
          "name": "tokenId",
          "type": "uint256"
        }
      ],
      "name": "getApproved",
      "outputs": [
        {
          "internalType": "address",
          "name": "",
          "type": "address"
        }
      ],
      "stateMutability": "view",
      "type": "function"
    },
    {
      "inputs": [],
      "name": "getFee",
      "outputs": [
        {
          "internalType": "uint256",
          "name": "marketFee",
          "type": "uint256"
        }
      ],
      "stateMutability": "view",
      "type": "function"
    },
    {
      "inputs": [
        {
          "internalType": "bytes32",
          "name": "role",
          "type": "bytes32"
        }
      ],
      "name": "getRoleAdmin",
      "outputs": [
        {
          "internalType": "bytes32",
          "name": "",
          "type": "bytes32"
        }
      ],
      "stateMutability": "view",
      "type": "function"
    },
    {
      "inputs": [
        {
          "internalType": "bytes32",
          "name": "role",
          "type": "bytes32"
        },
        {
          "internalType": "address",
          "name": "account",
          "type": "address"
        }
      ],
      "name": "grantRole",
      "outputs": [],
      "stateMutability": "nonpayable",
      "type": "function"
    },
    {
      "inputs": [
        {
          "internalType": "bytes32",
          "name": "role",
          "type": "bytes32"
        },
        {
          "internalType": "address",
          "name": "account",
          "type": "address"
        }
      ],
      "name": "hasRole",
      "outputs": [
        {
          "internalType": "bool",
          "name": "",
          "type": "bool"
        }
      ],
      "stateMutability": "view",
      "type": "function"
    },
    {
      "inputs": [
        {
          "internalType": "address",
          "name": "owner",
          "type": "address"
        },
        {
          "internalType": "address",
          "name": "operator",
          "type": "address"
        }
      ],
      "name": "isApprovedForAll",
      "outputs": [
        {
          "internalType": "bool",
          "name": "",
          "type": "bool"
        }
      ],
      "stateMutability": "view",
      "type": "function"
    },
    {
      "inputs": [],
      "name": "name",
      "outputs": [
        {
          "internalType": "string",
          "name": "",
          "type": "string"
        }
      ],
      "stateMutability": "view",
      "type": "function"
    },
    {
      "inputs": [
        {
          "internalType": "uint256",
          "name": "tokenId",
          "type": "uint256"
        }
      ],
      "name": "ownerOf",
      "outputs": [
        {
          "internalType": "address",
          "name": "",
          "type": "address"
        }
      ],
      "stateMutability": "view",
      "type": "function"
    },
    {
      "inputs": [],
      "name": "receiveFun",
      "outputs": [
        {
          "internalType": "address",
          "name": "",
          "type": "address"
        }
      ],
      "stateMutability": "view",
      "type": "function"
    },
    {
      "inputs": [
        {
          "internalType": "address",
          "name": "_signer",
          "type": "address"
        }
      ],
      "name": "removeSigner",
      "outputs": [],
      "stateMutability": "nonpayable",
      "type": "function"
    },
    {
      "inputs": [
        {
          "internalType": "bytes32",
          "name": "role",
          "type": "bytes32"
        },
        {
          "internalType": "address",
          "name": "account",
          "type": "address"
        }
      ],
      "name": "renounceRole",
      "outputs": [],
      "stateMutability": "nonpayable",
      "type": "function"
    },
    {
      "inputs": [
        {
          "internalType": "bytes32",
          "name": "role",
          "type": "bytes32"
        },
        {
          "internalType": "address",
          "name": "account",
          "type": "address"
        }
      ],
      "name": "revokeRole",
      "outputs": [],
      "stateMutability": "nonpayable",
      "type": "function"
    },
    {
      "inputs": [
        {
          "internalType": "address",
          "name": "to",
          "type": "address"
        },
        {
          "internalType": "uint256",
          "name": "tokenId",
          "type": "uint256"
        }
      ],
      "name": "safeMint",
      "outputs": [],
      "stateMutability": "nonpayable",
      "type": "function"
    },
    {
      "inputs": [
        {
          "internalType": "address",
          "name": "from",
          "type": "address"
        },
        {
          "internalType": "address",
          "name": "to",
          "type": "address"
        },
        {
          "internalType": "uint256",
          "name": "tokenId",
          "type": "uint256"
        }
      ],
      "name": "safeTransferFrom",
      "outputs": [],
      "stateMutability": "nonpayable",
      "type": "function"
    },
    {
      "inputs": [
        {
          "internalType": "address",
          "name": "from",
          "type": "address"
        },
        {
          "internalType": "address",
          "name": "to",
          "type": "address"
        },
        {
          "internalType": "uint256",
          "name": "tokenId",
          "type": "uint256"
        },
        {
          "internalType": "bytes",
          "name": "_data",
          "type": "bytes"
        }
      ],
      "name": "safeTransferFrom",
      "outputs": [],
      "stateMutability": "nonpayable",
      "type": "function"
    },
    {
      "inputs": [
        {
          "internalType": "address",
          "name": "operator",
          "type": "address"
        },
        {
          "internalType": "bool",
          "name": "approved",
          "type": "bool"
        }
      ],
      "name": "setApprovalForAll",
      "outputs": [],
      "stateMutability": "nonpayable",
      "type": "function"
    },
    {
      "inputs": [
        {
          "internalType": "string",
          "name": "baseUrl",
          "type": "string"
        }
      ],
      "name": "setBaseUrl",
      "outputs": [],
      "stateMutability": "nonpayable",
      "type": "function"
    },
    {
      "inputs": [
        {
          "internalType": "address",
          "name": "_fameAddress",
          "type": "address"
        }
      ],
      "name": "setFameAddress",
      "outputs": [],
      "stateMutability": "nonpayable",
      "type": "function"
    },
    {
      "inputs": [
        {
          "internalType": "uint256",
          "name": "_famePrice",
          "type": "uint256"
        }
      ],
      "name": "setFamePrice",
      "outputs": [],
      "stateMutability": "nonpayable",
      "type": "function"
    },
    {
      "inputs": [
        {
          "internalType": "uint256",
          "name": "_minFeeUSDT",
          "type": "uint256"
        }
      ],
      "name": "setFeeUSDT",
      "outputs": [],
      "stateMutability": "nonpayable",
      "type": "function"
    },
    {
      "inputs": [
        {
          "internalType": "address",
          "name": "_receiveFun",
          "type": "address"
        }
      ],
      "name": "setReceiveFunAddress",
      "outputs": [],
      "stateMutability": "nonpayable",
      "type": "function"
    },
    {
      "inputs": [
        {
          "internalType": "address",
          "name": "",
          "type": "address"
        }
      ],
      "name": "signers",
      "outputs": [
        {
          "internalType": "bool",
          "name": "",
          "type": "bool"
        }
      ],
      "stateMutability": "view",
      "type": "function"
    },
    {
      "inputs": [
        {
          "internalType": "bytes4",
          "name": "interfaceId",
          "type": "bytes4"
        }
      ],
      "name": "supportsInterface",
      "outputs": [
        {
          "internalType": "bool",
          "name": "",
          "type": "bool"
        }
      ],
      "stateMutability": "view",
      "type": "function"
    },
    {
      "inputs": [],
      "name": "symbol",
      "outputs": [
        {
          "internalType": "string",
          "name": "",
          "type": "string"
        }
      ],
      "stateMutability": "view",
      "type": "function"
    },
    {
      "inputs": [
        {
          "internalType": "uint256",
          "name": "index",
          "type": "uint256"
        }
      ],
      "name": "tokenByIndex",
      "outputs": [
        {
          "internalType": "uint256",
          "name": "",
          "type": "uint256"
        }
      ],
      "stateMutability": "view",
      "type": "function"
    },
    {
      "inputs": [
        {
          "internalType": "address",
          "name": "owner",
          "type": "address"
        },
        {
          "internalType": "uint256",
          "name": "index",
          "type": "uint256"
        }
      ],
      "name": "tokenOfOwnerByIndex",
      "outputs": [
        {
          "internalType": "uint256",
          "name": "",
          "type": "uint256"
        }
      ],
      "stateMutability": "view",
      "type": "function"
    },
    {
      "inputs": [
        {
          "internalType": "uint256",
          "name": "tokenId",
          "type": "uint256"
        }
      ],
      "name": "tokenURI",
      "outputs": [
        {
          "internalType": "string",
          "name": "",
          "type": "string"
        }
      ],
      "stateMutability": "view",
      "type": "function"
    },
    {
      "inputs": [],
      "name": "totalSupply",
      "outputs": [
        {
          "internalType": "uint256",
          "name": "",
          "type": "uint256"
        }
      ],
      "stateMutability": "view",
      "type": "function"
    },
    {
      "inputs": [
        {
          "internalType": "address",
          "name": "from",
          "type": "address"
        },
        {
          "internalType": "address",
          "name": "to",
          "type": "address"
        },
        {
          "internalType": "uint256",
          "name": "tokenId",
          "type": "uint256"
        }
      ],
      "name": "transferFrom",
      "outputs": [],
      "stateMutability": "nonpayable",
      "type": "function"
    }
  ],
  "bytecode": "0x60806040526101c2600e5561afc8600f553480156200001d57600080fd5b506040518060400160405280600481526020017f4865726f000000000000000000000000000000000000000000000000000000008152506040518060400160405280600481526020017f4845524f000000000000000000000000000000000000000000000000000000008152508160009080519060200190620000a292919062000270565b508060019080519060200190620000bb92919062000270565b505050620000d36000801b336200010b60201b60201c565b620001057f9f2df0fed2c77648de5860a4cc508cd0818c85b8b8a1ab4ceeef8d981c8956a6336200010b60201b60201c565b62000385565b6200011d8282620001fd60201b60201c565b620001f9576001600a600084815260200190815260200160002060000160008373ffffffffffffffffffffffffffffffffffffffff1673ffffffffffffffffffffffffffffffffffffffff16815260200190815260200160002060006101000a81548160ff0219169083151502179055506200019e6200026860201b60201c565b73ffffffffffffffffffffffffffffffffffffffff168173ffffffffffffffffffffffffffffffffffffffff16837f2f8788117e7eff1d82e926ec794901d17c78024a50270940304540a733656f0d60405160405180910390a45b5050565b6000600a600084815260200190815260200160002060000160008373ffffffffffffffffffffffffffffffffffffffff1673ffffffffffffffffffffffffffffffffffffffff16815260200190815260200160002060009054906101000a900460ff16905092915050565b600033905090565b8280546200027e9062000320565b90600052602060002090601f016020900481019282620002a25760008555620002ee565b82601f10620002bd57805160ff1916838001178555620002ee565b82800160010185558215620002ee579182015b82811115620002ed578251825591602001919060010190620002d0565b5b509050620002fd919062000301565b5090565b5b808211156200031c57600081600090555060010162000302565b5090565b600060028204905060018216806200033957607f821691505b6020821081141562000350576200034f62000356565b5b50919050565b7f4e487b7100000000000000000000000000000000000000000000000000000000600052602260045260246000fd5b61532980620003956000396000f3fe608060405234801561001057600080fd5b506004361061023d5760003560e01c80638edea4061161013b578063c3c46ac6116100b8578063d547741f1161007c578063d547741f146106d6578063e985e9c5146106f2578063eb12d61e14610722578063f477b6a81461073e578063fcd3533c1461075a5761023d565b8063c3c46ac614610632578063c7c3268b1461064e578063c87b56dd1461066a578063ced72f871461069a578063d5391393146106b85761023d565b8063a217fddf116100ff578063a217fddf146105a2578063a22cb465146105c0578063a55d6fcf146105dc578063b782edf1146105fa578063b88d4fde146106165761023d565b80638edea406146104fe57806391d148541461051c57806395d89b411461054c578063a09a79501461056a578063a1448194146105865761023d565b80632f745c59116101c95780636352211e1161018d5780636352211e1461043457806370a0823114610464578063722fe5de14610494578063736c0d5b146104b2578063876f8a22146104e25761023d565b80632f745c591461037e57806336568abe146103ae57806342842e0e146103ca5780634f6ccce7146103e65780635ab801a6146104165761023d565b80630e316ab7116102105780630e316ab7146102dc57806318160ddd146102f857806323b872dd14610316578063248a9ca3146103325780632f2ff15d146103625761023d565b806301ffc9a71461024257806306fdde0314610272578063081812fc14610290578063095ea7b3146102c0575b600080fd5b61025c60048036038101906102579190613a30565b610776565b6040516102699190614225565b60405180910390f35b61027a610788565b60405161028791906142bb565b60405180910390f35b6102aa60048036038101906102a59190613ac3565b61081a565b6040516102b79190614187565b60405180910390f35b6102da60048036038101906102d591906138fa565b61089f565b005b6102f660048036038101906102f1919061378f565b6109b7565b005b610300610aed565b60405161030d919061461d565b60405180910390f35b610330600480360381019061032b91906137f4565b610afa565b005b61034c600480360381019061034791906139cb565b610b5a565b6040516103599190614240565b60405180910390f35b61037c600480360381019061037791906139f4565b610b7a565b005b610398600480360381019061039391906138fa565b610ba3565b6040516103a5919061461d565b60405180910390f35b6103c860048036038101906103c391906139f4565b610c48565b005b6103e460048036038101906103df91906137f4565b610ccb565b005b61040060048036038101906103fb9190613ac3565b610ceb565b60405161040d919061461d565b60405180910390f35b61041e610d82565b60405161042b91906142a0565b60405180910390f35b61044e60048036038101906104499190613ac3565b610da8565b60405161045b9190614187565b60405180910390f35b61047e6004803603810190610479919061378f565b610e5a565b60405161048b919061461d565b60405180910390f35b61049c610f12565b6040516104a9919061461d565b60405180910390f35b6104cc60048036038101906104c7919061378f565b610f18565b6040516104d99190614225565b60405180910390f35b6104fc60048036038101906104f79190613936565b610f38565b005b6105066110c4565b604051610513919061461d565b60405180910390f35b610536600480360381019061053191906139f4565b6110ca565b6040516105439190614225565b60405180910390f35b610554611135565b60405161056191906142bb565b60405180910390f35b610584600480360381019061057f919061378f565b6111c7565b005b6105a0600480360381019061059b91906138fa565b611221565b005b6105aa611262565b6040516105b79190614240565b60405180910390f35b6105da60048036038101906105d591906138be565b611269565b005b6105e461127f565b6040516105f19190614187565b60405180910390f35b610614600480360381019061060f9190613ac3565b6112a5565b005b610630600480360381019061062b9190613843565b6112c5565b005b61064c60048036038101906106479190613ac3565b611327565b005b61066860048036038101906106639190613a82565b611347565b005b610684600480360381019061067f9190613ac3565b611377565b60405161069191906142bb565b60405180910390f35b6106a261141e565b6040516106af919061461d565b60405180910390f35b6106c0611448565b6040516106cd9190614240565b60405180910390f35b6106f060048036038101906106eb91906139f4565b61146c565b005b61070c600480360381019061070791906137b8565b611495565b6040516107199190614225565b60405180910390f35b61073c6004803603810190610737919061378f565b611529565b005b6107586004803603810190610753919061378f565b611660565b005b610774600480360381019061076f9190613aec565b6116ba565b005b6000610781826117d9565b9050919050565b6060600080546107979061493d565b80601f01602080910402602001604051908101604052809291908181526020018280546107c39061493d565b80156108105780601f106107e557610100808354040283529160200191610810565b820191906000526020600020905b8154815290600101906020018083116107f357829003601f168201915b5050505050905090565b600061082582611853565b610864576040517f08c379a000000000000000000000000000000000000000000000000000000000815260040161085b9061449d565b60405180910390fd5b6004600083815260200190815260200160002060009054906101000a900473ffffffffffffffffffffffffffffffffffffffff169050919050565b60006108aa82610da8565b90508073ffffffffffffffffffffffffffffffffffffffff168373ffffffffffffffffffffffffffffffffffffffff16141561091b576040517f08c379a0000000000000000000000000000000000000000000000000000000008152600401610912906144fd565b60405180910390fd5b8073ffffffffffffffffffffffffffffffffffffffff1661093a6118bf565b73ffffffffffffffffffffffffffffffffffffffff1614806109695750610968816109636118bf565b611495565b5b6109a8576040517f08c379a000000000000000000000000000000000000000000000000000000000815260040161099f9061441d565b60405180910390fd5b6109b283836118c7565b505050565b6000801b6109cc816109c76118bf565b611980565b600073ffffffffffffffffffffffffffffffffffffffff168273ffffffffffffffffffffffffffffffffffffffff1614158015610a525750600d60008373ffffffffffffffffffffffffffffffffffffffff1673ffffffffffffffffffffffffffffffffffffffff16815260200190815260200160002060009054906101000a900460ff165b610a91576040517f08c379a0000000000000000000000000000000000000000000000000000000008152600401610a88906145bd565b60405180910390fd5b6000600d60008473ffffffffffffffffffffffffffffffffffffffff1673ffffffffffffffffffffffffffffffffffffffff16815260200190815260200160002060006101000a81548160ff0219169083151502179055505050565b6000600880549050905090565b610b0b610b056118bf565b82611a1d565b610b4a576040517f08c379a0000000000000000000000000000000000000000000000000000000008152600401610b419061451d565b60405180910390fd5b610b55838383611afb565b505050565b6000600a6000838152602001908152602001600020600101549050919050565b610b8382610b5a565b610b9481610b8f6118bf565b611980565b610b9e8383611d57565b505050565b6000610bae83610e5a565b8210610bef576040517f08c379a0000000000000000000000000000000000000000000000000000000008152600401610be69061431d565b60405180910390fd5b600660008473ffffffffffffffffffffffffffffffffffffffff1673ffffffffffffffffffffffffffffffffffffffff168152602001908152602001600020600083815260200190815260200160002054905092915050565b610c506118bf565b73ffffffffffffffffffffffffffffffffffffffff168173ffffffffffffffffffffffffffffffffffffffff1614610cbd576040517f08c379a0000000000000000000000000000000000000000000000000000000008152600401610cb4906145dd565b60405180910390fd5b610cc78282611e38565b5050565b610ce6838383604051806020016040528060008152506112c5565b505050565b6000610cf5610aed565b8210610d36576040517f08c379a0000000000000000000000000000000000000000000000000000000008152600401610d2d9061455d565b60405180910390fd5b60088281548110610d70577f4e487b7100000000000000000000000000000000000000000000000000000000600052603260045260246000fd5b90600052602060002001549050919050565b601060009054906101000a900473ffffffffffffffffffffffffffffffffffffffff1681565b6000806002600084815260200190815260200160002060009054906101000a900473ffffffffffffffffffffffffffffffffffffffff169050600073ffffffffffffffffffffffffffffffffffffffff168173ffffffffffffffffffffffffffffffffffffffff161415610e51576040517f08c379a0000000000000000000000000000000000000000000000000000000008152600401610e489061445d565b60405180910390fd5b80915050919050565b60008073ffffffffffffffffffffffffffffffffffffffff168273ffffffffffffffffffffffffffffffffffffffff161415610ecb576040517f08c379a0000000000000000000000000000000000000000000000000000000008152600401610ec29061443d565b60405180910390fd5b600360008373ffffffffffffffffffffffffffffffffffffffff1673ffffffffffffffffffffffffffffffffffffffff168152602001908152602001600020549050919050565b600e5481565b600d6020528060005260406000206000915054906101000a900460ff1681565b610f4183611853565b15610f81576040517f08c379a0000000000000000000000000000000000000000000000000000000008152600401610f789061457d565b60405180910390fd5b60008484604051602001610f969291906140f0565b60405160208183030381529060405280519060200120604051602001610fbc9190614127565b60405160208183030381529060405280519060200120905060006110248285858080601f016020809104026020016040519081016040528093929190818152602001838380828437600081840152601f19601f82011690508083019250505050505050611f1a565b9050600d60008273ffffffffffffffffffffffffffffffffffffffff1673ffffffffffffffffffffffffffffffffffffffff16815260200190815260200160002060009054906101000a900460ff166110b2576040517f08c379a00000000000000000000000000000000000000000000000000000000081526004016110a9906145fd565b60405180910390fd5b6110bc8686611f89565b505050505050565b600f5481565b6000600a600084815260200190815260200160002060000160008373ffffffffffffffffffffffffffffffffffffffff1673ffffffffffffffffffffffffffffffffffffffff16815260200190815260200160002060009054906101000a900460ff16905092915050565b6060600180546111449061493d565b80601f01602080910402602001604051908101604052809291908181526020018280546111709061493d565b80156111bd5780601f10611192576101008083540402835291602001916111bd565b820191906000526020600020905b8154815290600101906020018083116111a057829003601f168201915b5050505050905090565b6000801b6111dc816111d76118bf565b611980565b81601060006101000a81548173ffffffffffffffffffffffffffffffffffffffff021916908373ffffffffffffffffffffffffffffffffffffffff1602179055505050565b7f9f2df0fed2c77648de5860a4cc508cd0818c85b8b8a1ab4ceeef8d981c8956a66112538161124e6118bf565b611980565b61125d8383611f89565b505050565b6000801b81565b61127b6112746118bf565b8383611fa7565b5050565b601160009054906101000a900473ffffffffffffffffffffffffffffffffffffffff1681565b6000801b6112ba816112b56118bf565b611980565b81600e819055505050565b6112d66112d06118bf565b83611a1d565b611315576040517f08c379a000000000000000000000000000000000000000000000000000000000815260040161130c9061451d565b60405180910390fd5b61132184848484612114565b50505050565b6000801b61133c816113376118bf565b611980565b81600f819055505050565b6000801b61135c816113576118bf565b611980565b81600c908051906020019061137292919061353f565b505050565b606061138282611853565b6113c1576040517f08c379a00000000000000000000000000000000000000000000000000000000081526004016113b8906144dd565b60405180910390fd5b60006113cb612170565b905060008151116113eb5760405180602001604052806000815250611416565b806113f584612202565b6040516020016114069291906140cc565b6040516020818303038152906040525b915050919050565b6000600e54670de0b6b3a7640000600f546114399190614794565b6114439190614763565b905090565b7f9f2df0fed2c77648de5860a4cc508cd0818c85b8b8a1ab4ceeef8d981c8956a681565b61147582610b5a565b611486816114816118bf565b611980565b6114908383611e38565b505050565b6000600560008473ffffffffffffffffffffffffffffffffffffffff1673ffffffffffffffffffffffffffffffffffffffff16815260200190815260200160002060008373ffffffffffffffffffffffffffffffffffffffff1673ffffffffffffffffffffffffffffffffffffffff16815260200190815260200160002060009054906101000a900460ff16905092915050565b6000801b61153e816115396118bf565b611980565b600073ffffffffffffffffffffffffffffffffffffffff168273ffffffffffffffffffffffffffffffffffffffff16141580156115c55750600d60008373ffffffffffffffffffffffffffffffffffffffff1673ffffffffffffffffffffffffffffffffffffffff16815260200190815260200160002060009054906101000a900460ff16155b611604576040517f08c379a00000000000000000000000000000000000000000000000000000000081526004016115fb906145bd565b60405180910390fd5b6001600d60008473ffffffffffffffffffffffffffffffffffffffff1673ffffffffffffffffffffffffffffffffffffffff16815260200190815260200160002060006101000a81548160ff0219169083151502179055505050565b6000801b611675816116706118bf565b611980565b81601160006101000a81548173ffffffffffffffffffffffffffffffffffffffff021916908373ffffffffffffffffffffffffffffffffffffffff1602179055505050565b6116cb6116c56118bf565b83611a1d565b61170a576040517f08c379a0000000000000000000000000000000000000000000000000000000008152600401611701906142fd565b60405180910390fd5b611713826123af565b600061171d61141e565b905061179033601160009054906101000a900473ffffffffffffffffffffffffffffffffffffffff1683601060009054906101000a900473ffffffffffffffffffffffffffffffffffffffff1673ffffffffffffffffffffffffffffffffffffffff166124c0909392919063ffffffff16565b8173ffffffffffffffffffffffffffffffffffffffff16837ff6554c3a5d28e08c120b5a69c7edbaf52f935bd2596a60b8a18e282cd257cddb60405160405180910390a3505050565b60007f7965db0b000000000000000000000000000000000000000000000000000000007bffffffffffffffffffffffffffffffffffffffffffffffffffffffff1916827bffffffffffffffffffffffffffffffffffffffffffffffffffffffff1916148061184c575061184b82612549565b5b9050919050565b60008073ffffffffffffffffffffffffffffffffffffffff166002600084815260200190815260200160002060009054906101000a900473ffffffffffffffffffffffffffffffffffffffff1673ffffffffffffffffffffffffffffffffffffffff1614159050919050565b600033905090565b816004600083815260200190815260200160002060006101000a81548173ffffffffffffffffffffffffffffffffffffffff021916908373ffffffffffffffffffffffffffffffffffffffff160217905550808273ffffffffffffffffffffffffffffffffffffffff1661193a83610da8565b73ffffffffffffffffffffffffffffffffffffffff167f8c5be1e5ebec7d5bd14f71427d1e84f3dd0314c0f7b2291e5b200ac8c7c3b92560405160405180910390a45050565b61198a82826110ca565b611a19576119af8173ffffffffffffffffffffffffffffffffffffffff1660146125c3565b6119bd8360001c60206125c3565b6040516020016119ce92919061414d565b6040516020818303038152906040526040517f08c379a0000000000000000000000000000000000000000000000000000000008152600401611a1091906142bb565b60405180910390fd5b5050565b6000611a2882611853565b611a67576040517f08c379a0000000000000000000000000000000000000000000000000000000008152600401611a5e906143fd565b60405180910390fd5b6000611a7283610da8565b90508073ffffffffffffffffffffffffffffffffffffffff168473ffffffffffffffffffffffffffffffffffffffff161480611ae157508373ffffffffffffffffffffffffffffffffffffffff16611ac98461081a565b73ffffffffffffffffffffffffffffffffffffffff16145b80611af25750611af18185611495565b5b91505092915050565b8273ffffffffffffffffffffffffffffffffffffffff16611b1b82610da8565b73ffffffffffffffffffffffffffffffffffffffff1614611b71576040517f08c379a0000000000000000000000000000000000000000000000000000000008152600401611b68906144bd565b60405180910390fd5b600073ffffffffffffffffffffffffffffffffffffffff168273ffffffffffffffffffffffffffffffffffffffff161415611be1576040517f08c379a0000000000000000000000000000000000000000000000000000000008152600401611bd89061439d565b60405180910390fd5b611bec8383836128bd565b611bf76000826118c7565b6001600360008573ffffffffffffffffffffffffffffffffffffffff1673ffffffffffffffffffffffffffffffffffffffff1681526020019081526020016000206000828254611c4791906147ee565b925050819055506001600360008473ffffffffffffffffffffffffffffffffffffffff1673ffffffffffffffffffffffffffffffffffffffff1681526020019081526020016000206000828254611c9e919061470d565b92505081905550816002600083815260200190815260200160002060006101000a81548173ffffffffffffffffffffffffffffffffffffffff021916908373ffffffffffffffffffffffffffffffffffffffff160217905550808273ffffffffffffffffffffffffffffffffffffffff168473ffffffffffffffffffffffffffffffffffffffff167fddf252ad1be2c89b69c2b068fc378daa952ba7f163c4a11628f55a4df523b3ef60405160405180910390a4505050565b611d6182826110ca565b611e34576001600a600084815260200190815260200160002060000160008373ffffffffffffffffffffffffffffffffffffffff1673ffffffffffffffffffffffffffffffffffffffff16815260200190815260200160002060006101000a81548160ff021916908315150217905550611dd96118bf565b73ffffffffffffffffffffffffffffffffffffffff168173ffffffffffffffffffffffffffffffffffffffff16837f2f8788117e7eff1d82e926ec794901d17c78024a50270940304540a733656f0d60405160405180910390a45b5050565b611e4282826110ca565b15611f16576000600a600084815260200190815260200160002060000160008373ffffffffffffffffffffffffffffffffffffffff1673ffffffffffffffffffffffffffffffffffffffff16815260200190815260200160002060006101000a81548160ff021916908315150217905550611ebb6118bf565b73ffffffffffffffffffffffffffffffffffffffff168173ffffffffffffffffffffffffffffffffffffffff16837ff6391f5c32d9c69d2a47ea670b442974b53935d1edc7fd64eb21e047a839171b60405160405180910390a45b5050565b600080600080611f29856128cd565b92509250925060018682858560405160008152602001604052604051611f52949392919061425b565b6020604051602081039080840390855afa158015611f74573d6000803e3d6000fd5b50505060206040510351935050505092915050565b611fa3828260405180602001604052806000815250612935565b5050565b8173ffffffffffffffffffffffffffffffffffffffff168373ffffffffffffffffffffffffffffffffffffffff161415612016576040517f08c379a000000000000000000000000000000000000000000000000000000000815260040161200d906143bd565b60405180910390fd5b80600560008573ffffffffffffffffffffffffffffffffffffffff1673ffffffffffffffffffffffffffffffffffffffff16815260200190815260200160002060008473ffffffffffffffffffffffffffffffffffffffff1673ffffffffffffffffffffffffffffffffffffffff16815260200190815260200160002060006101000a81548160ff0219169083151502179055508173ffffffffffffffffffffffffffffffffffffffff168373ffffffffffffffffffffffffffffffffffffffff167f17307eab39ab6107e8899845ad3d59bd9653f200f220920489ca2b5937696c31836040516121079190614225565b60405180910390a3505050565b61211f848484611afb565b61212b84848484612990565b61216a576040517f08c379a00000000000000000000000000000000000000000000000000000000081526004016121619061433d565b60405180910390fd5b50505050565b6060600c805461217f9061493d565b80601f01602080910402602001604051908101604052809291908181526020018280546121ab9061493d565b80156121f85780601f106121cd576101008083540402835291602001916121f8565b820191906000526020600020905b8154815290600101906020018083116121db57829003601f168201915b5050505050905090565b6060600082141561224a576040518060400160405280600181526020017f300000000000000000000000000000000000000000000000000000000000000081525090506123aa565b600082905060005b6000821461227c578080612265906149a0565b915050600a826122759190614763565b9150612252565b60008167ffffffffffffffff8111156122be577f4e487b7100000000000000000000000000000000000000000000000000000000600052604160045260246000fd5b6040519080825280601f01601f1916602001820160405280156122f05781602001600182028036833780820191505090505b5090505b600085146123a35760018261230991906147ee565b9150600a856123189190614a21565b6030612324919061470d565b60f81b818381518110612360577f4e487b7100000000000000000000000000000000000000000000000000000000600052603260045260246000fd5b60200101907effffffffffffffffffffffffffffffffffffffffffffffffffffffffffffff1916908160001a905350600a8561239c9190614763565b94506122f4565b8093505050505b919050565b60006123ba82610da8565b90506123c8816000846128bd565b6123d36000836118c7565b6001600360008373ffffffffffffffffffffffffffffffffffffffff1673ffffffffffffffffffffffffffffffffffffffff168152602001908152602001600020600082825461242391906147ee565b925050819055506002600083815260200190815260200160002060006101000a81549073ffffffffffffffffffffffffffffffffffffffff021916905581600073ffffffffffffffffffffffffffffffffffffffff168273ffffffffffffffffffffffffffffffffffffffff167fddf252ad1be2c89b69c2b068fc378daa952ba7f163c4a11628f55a4df523b3ef60405160405180910390a45050565b612543846323b872dd60e01b8585856040516024016124e1939291906141a2565b604051602081830303815290604052907bffffffffffffffffffffffffffffffffffffffffffffffffffffffff19166020820180517bffffffffffffffffffffffffffffffffffffffffffffffffffffffff8381831617835250505050612b27565b50505050565b60007f780e9d63000000000000000000000000000000000000000000000000000000007bffffffffffffffffffffffffffffffffffffffffffffffffffffffff1916827bffffffffffffffffffffffffffffffffffffffffffffffffffffffff191614806125bc57506125bb82612bee565b5b9050919050565b6060600060028360026125d69190614794565b6125e0919061470d565b67ffffffffffffffff81111561261f577f4e487b7100000000000000000000000000000000000000000000000000000000600052604160045260246000fd5b6040519080825280601f01601f1916602001820160405280156126515781602001600182028036833780820191505090505b5090507f3000000000000000000000000000000000000000000000000000000000000000816000815181106126af577f4e487b7100000000000000000000000000000000000000000000000000000000600052603260045260246000fd5b60200101907effffffffffffffffffffffffffffffffffffffffffffffffffffffffffffff1916908160001a9053507f780000000000000000000000000000000000000000000000000000000000000081600181518110612739577f4e487b7100000000000000000000000000000000000000000000000000000000600052603260045260246000fd5b60200101907effffffffffffffffffffffffffffffffffffffffffffffffffffffffffffff1916908160001a905350600060018460026127799190614794565b612783919061470d565b90505b600181111561286f577f3031323334353637383961626364656600000000000000000000000000000000600f8616601081106127eb577f4e487b7100000000000000000000000000000000000000000000000000000000600052603260045260246000fd5b1a60f81b828281518110612828577f4e487b7100000000000000000000000000000000000000000000000000000000600052603260045260246000fd5b60200101907effffffffffffffffffffffffffffffffffffffffffffffffffffffffffffff1916908160001a905350600485901c94508061286890614913565b9050612786565b50600084146128b3576040517f08c379a00000000000000000000000000000000000000000000000000000000081526004016128aa906142dd565b60405180910390fd5b8091505092915050565b6128c8838383612cd0565b505050565b60008060006041845114612916576040517f08c379a000000000000000000000000000000000000000000000000000000000815260040161290d9061437d565b60405180910390fd5b6020840151925060408401519150606084015160001a90509193909250565b61293f8383612de4565b61294c6000848484612990565b61298b576040517f08c379a00000000000000000000000000000000000000000000000000000000081526004016129829061433d565b60405180910390fd5b505050565b60006129b18473ffffffffffffffffffffffffffffffffffffffff16612fb2565b15612b1a578373ffffffffffffffffffffffffffffffffffffffff1663150b7a026129da6118bf565b8786866040518563ffffffff1660e01b81526004016129fc94939291906141d9565b602060405180830381600087803b158015612a1657600080fd5b505af1925050508015612a4757506040513d601f19601f82011682018060405250810190612a449190613a59565b60015b612aca573d8060008114612a77576040519150601f19603f3d011682016040523d82523d6000602084013e612a7c565b606091505b50600081511415612ac2576040517f08c379a0000000000000000000000000000000000000000000000000000000008152600401612ab99061433d565b60405180910390fd5b805181602001fd5b63150b7a0260e01b7bffffffffffffffffffffffffffffffffffffffffffffffffffffffff1916817bffffffffffffffffffffffffffffffffffffffffffffffffffffffff191614915050612b1f565b600190505b949350505050565b6000612b89826040518060400160405280602081526020017f5361666545524332303a206c6f772d6c6576656c2063616c6c206661696c65648152508573ffffffffffffffffffffffffffffffffffffffff16612fc59092919063ffffffff16565b9050600081511115612be95780806020019051810190612ba991906139a2565b612be8576040517f08c379a0000000000000000000000000000000000000000000000000000000008152600401612bdf9061459d565b60405180910390fd5b5b505050565b60007f80ac58cd000000000000000000000000000000000000000000000000000000007bffffffffffffffffffffffffffffffffffffffffffffffffffffffff1916827bffffffffffffffffffffffffffffffffffffffffffffffffffffffff19161480612cb957507f5b5e139f000000000000000000000000000000000000000000000000000000007bffffffffffffffffffffffffffffffffffffffffffffffffffffffff1916827bffffffffffffffffffffffffffffffffffffffffffffffffffffffff1916145b80612cc95750612cc882612fdd565b5b9050919050565b612cdb838383613047565b600073ffffffffffffffffffffffffffffffffffffffff168373ffffffffffffffffffffffffffffffffffffffff161415612d1e57612d198161304c565b612d5d565b8173ffffffffffffffffffffffffffffffffffffffff168373ffffffffffffffffffffffffffffffffffffffff1614612d5c57612d5b8382613095565b5b5b600073ffffffffffffffffffffffffffffffffffffffff168273ffffffffffffffffffffffffffffffffffffffff161415612da057612d9b81613202565b612ddf565b8273ffffffffffffffffffffffffffffffffffffffff168273ffffffffffffffffffffffffffffffffffffffff1614612dde57612ddd8282613345565b5b5b505050565b600073ffffffffffffffffffffffffffffffffffffffff168273ffffffffffffffffffffffffffffffffffffffff161415612e54576040517f08c379a0000000000000000000000000000000000000000000000000000000008152600401612e4b9061447d565b60405180910390fd5b612e5d81611853565b15612e9d576040517f08c379a0000000000000000000000000000000000000000000000000000000008152600401612e949061435d565b60405180910390fd5b612ea9600083836128bd565b6001600360008473ffffffffffffffffffffffffffffffffffffffff1673ffffffffffffffffffffffffffffffffffffffff1681526020019081526020016000206000828254612ef9919061470d565b92505081905550816002600083815260200190815260200160002060006101000a81548173ffffffffffffffffffffffffffffffffffffffff021916908373ffffffffffffffffffffffffffffffffffffffff160217905550808273ffffffffffffffffffffffffffffffffffffffff16600073ffffffffffffffffffffffffffffffffffffffff167fddf252ad1be2c89b69c2b068fc378daa952ba7f163c4a11628f55a4df523b3ef60405160405180910390a45050565b600080823b905060008111915050919050565b6060612fd484846000856133c4565b90509392505050565b60007f01ffc9a7000000000000000000000000000000000000000000000000000000007bffffffffffffffffffffffffffffffffffffffffffffffffffffffff1916827bffffffffffffffffffffffffffffffffffffffffffffffffffffffff1916149050919050565b505050565b6008805490506009600083815260200190815260200160002081905550600881908060018154018082558091505060019003906000526020600020016000909190919091505550565b600060016130a284610e5a565b6130ac91906147ee565b9050600060076000848152602001908152602001600020549050818114613191576000600660008673ffffffffffffffffffffffffffffffffffffffff1673ffffffffffffffffffffffffffffffffffffffff168152602001908152602001600020600084815260200190815260200160002054905080600660008773ffffffffffffffffffffffffffffffffffffffff1673ffffffffffffffffffffffffffffffffffffffff168152602001908152602001600020600084815260200190815260200160002081905550816007600083815260200190815260200160002081905550505b6007600084815260200190815260200160002060009055600660008573ffffffffffffffffffffffffffffffffffffffff1673ffffffffffffffffffffffffffffffffffffffff16815260200190815260200160002060008381526020019081526020016000206000905550505050565b6000600160088054905061321691906147ee565b905060006009600084815260200190815260200160002054905060006008838154811061326c577f4e487b7100000000000000000000000000000000000000000000000000000000600052603260045260246000fd5b9060005260206000200154905080600883815481106132b4577f4e487b7100000000000000000000000000000000000000000000000000000000600052603260045260246000fd5b906000526020600020018190555081600960008381526020019081526020016000208190555060096000858152602001908152602001600020600090556008805480613329577f4e487b7100000000000000000000000000000000000000000000000000000000600052603160045260246000fd5b6001900381819060005260206000200160009055905550505050565b600061335083610e5a565b905081600660008573ffffffffffffffffffffffffffffffffffffffff1673ffffffffffffffffffffffffffffffffffffffff168152602001908152602001600020600083815260200190815260200160002081905550806007600084815260200190815260200160002081905550505050565b606082471015613409576040517f08c379a0000000000000000000000000000000000000000000000000000000008152600401613400906143dd565b60405180910390fd5b61341285612fb2565b613451576040517f08c379a00000000000000000000000000000000000000000000000000000000081526004016134489061453d565b60405180910390fd5b6000808673ffffffffffffffffffffffffffffffffffffffff16858760405161347a91906140b5565b60006040518083038185875af1925050503d80600081146134b7576040519150601f19603f3d011682016040523d82523d6000602084013e6134bc565b606091505b50915091506134cc8282866134d8565b92505050949350505050565b606083156134e857829050613538565b6000835111156134fb5782518084602001fd5b816040517f08c379a000000000000000000000000000000000000000000000000000000000815260040161352f91906142bb565b60405180910390fd5b9392505050565b82805461354b9061493d565b90600052602060002090601f01602090048101928261356d57600085556135b4565b82601f1061358657805160ff19168380011785556135b4565b828001600101855582156135b4579182015b828111156135b3578251825591602001919060010190613598565b5b5090506135c191906135c5565b5090565b5b808211156135de5760008160009055506001016135c6565b5090565b60006135f56135f08461465d565b614638565b90508281526020810184848401111561360d57600080fd5b6136188482856148d1565b509392505050565b600061363361362e8461468e565b614638565b90508281526020810184848401111561364b57600080fd5b6136568482856148d1565b509392505050565b60008135905061366d81615280565b92915050565b60008135905061368281615297565b92915050565b60008151905061369781615297565b92915050565b6000813590506136ac816152ae565b92915050565b6000813590506136c1816152c5565b92915050565b6000815190506136d6816152c5565b92915050565b60008083601f8401126136ee57600080fd5b8235905067ffffffffffffffff81111561370757600080fd5b60208301915083600182028301111561371f57600080fd5b9250929050565b600082601f83011261373757600080fd5b81356137478482602086016135e2565b91505092915050565b600082601f83011261376157600080fd5b8135613771848260208601613620565b91505092915050565b600081359050613789816152dc565b92915050565b6000602082840312156137a157600080fd5b60006137af8482850161365e565b91505092915050565b600080604083850312156137cb57600080fd5b60006137d98582860161365e565b92505060206137ea8582860161365e565b9150509250929050565b60008060006060848603121561380957600080fd5b60006138178682870161365e565b93505060206138288682870161365e565b92505060406138398682870161377a565b9150509250925092565b6000806000806080858703121561385957600080fd5b60006138678782880161365e565b94505060206138788782880161365e565b93505060406138898782880161377a565b925050606085013567ffffffffffffffff8111156138a657600080fd5b6138b287828801613726565b91505092959194509250565b600080604083850312156138d157600080fd5b60006138df8582860161365e565b92505060206138f085828601613673565b9150509250929050565b6000806040838503121561390d57600080fd5b600061391b8582860161365e565b925050602061392c8582860161377a565b9150509250929050565b6000806000806060858703121561394c57600080fd5b600061395a8782880161365e565b945050602061396b8782880161377a565b935050604085013567ffffffffffffffff81111561398857600080fd5b613994878288016136dc565b925092505092959194509250565b6000602082840312156139b457600080fd5b60006139c284828501613688565b91505092915050565b6000602082840312156139dd57600080fd5b60006139eb8482850161369d565b91505092915050565b60008060408385031215613a0757600080fd5b6000613a158582860161369d565b9250506020613a268582860161365e565b9150509250929050565b600060208284031215613a4257600080fd5b6000613a50848285016136b2565b91505092915050565b600060208284031215613a6b57600080fd5b6000613a79848285016136c7565b91505092915050565b600060208284031215613a9457600080fd5b600082013567ffffffffffffffff811115613aae57600080fd5b613aba84828501613750565b91505092915050565b600060208284031215613ad557600080fd5b6000613ae38482850161377a565b91505092915050565b60008060408385031215613aff57600080fd5b6000613b0d8582860161377a565b9250506020613b1e8582860161365e565b9150509250929050565b613b3181614822565b82525050565b613b48613b4382614822565b6149e9565b82525050565b613b5781614834565b82525050565b613b6681614840565b82525050565b613b7d613b7882614840565b6149fb565b82525050565b6000613b8e826146bf565b613b9881856146d5565b9350613ba88185602086016148e0565b613bb181614b0e565b840191505092915050565b6000613bc7826146bf565b613bd181856146e6565b9350613be18185602086016148e0565b80840191505092915050565b613bf6816148ad565b82525050565b6000613c07826146ca565b613c1181856146f1565b9350613c218185602086016148e0565b613c2a81614b0e565b840191505092915050565b6000613c40826146ca565b613c4a8185614702565b9350613c5a8185602086016148e0565b80840191505092915050565b6000613c73601083614702565b9150613c7e82614b2c565b601082019050919050565b6000613c966020836146f1565b9150613ca182614b55565b602082019050919050565b6000613cb9601c83614702565b9150613cc482614b7e565b601c82019050919050565b6000613cdc6024836146f1565b9150613ce782614ba7565b604082019050919050565b6000613cff602b836146f1565b9150613d0a82614bf6565b604082019050919050565b6000613d226032836146f1565b9150613d2d82614c45565b604082019050919050565b6000613d45601c836146f1565b9150613d5082614c94565b602082019050919050565b6000613d68601c836146f1565b9150613d7382614cbd565b602082019050919050565b6000613d8b6024836146f1565b9150613d9682614ce6565b604082019050919050565b6000613dae6019836146f1565b9150613db982614d35565b602082019050919050565b6000613dd16026836146f1565b9150613ddc82614d5e565b604082019050919050565b6000613df4602c836146f1565b9150613dff82614dad565b604082019050919050565b6000613e176038836146f1565b9150613e2282614dfc565b604082019050919050565b6000613e3a602a836146f1565b9150613e4582614e4b565b604082019050919050565b6000613e5d6029836146f1565b9150613e6882614e9a565b604082019050919050565b6000613e806020836146f1565b9150613e8b82614ee9565b602082019050919050565b6000613ea3602c836146f1565b9150613eae82614f12565b604082019050919050565b6000613ec66029836146f1565b9150613ed182614f61565b604082019050919050565b6000613ee9602f836146f1565b9150613ef482614fb0565b604082019050919050565b6000613f0c6021836146f1565b9150613f1782614fff565b604082019050919050565b6000613f2f6031836146f1565b9150613f3a8261504e565b604082019050919050565b6000613f52601d836146f1565b9150613f5d8261509d565b602082019050919050565b6000613f75602c836146f1565b9150613f80826150c6565b604082019050919050565b6000613f98601783614702565b9150613fa382615115565b601782019050919050565b6000613fbb6010836146f1565b9150613fc68261513e565b602082019050919050565b6000613fde602a836146f1565b9150613fe982615167565b604082019050919050565b60006140016013836146f1565b915061400c826151b6565b602082019050919050565b6000614024601183614702565b915061402f826151df565b601182019050919050565b6000614047602f836146f1565b915061405282615208565b604082019050919050565b600061406a6012836146f1565b915061407582615257565b602082019050919050565b61408981614896565b82525050565b6140a061409b82614896565b614a17565b82525050565b6140af816148a0565b82525050565b60006140c18284613bbc565b915081905092915050565b60006140d88285613c35565b91506140e48284613c35565b91508190509392505050565b60006140fb82613c66565b91506141078285613b37565b601482019150614117828461408f565b6020820191508190509392505050565b600061413282613cac565b915061413e8284613b6c565b60208201915081905092915050565b600061415882613f8b565b91506141648285613c35565b915061416f82614017565b915061417b8284613c35565b91508190509392505050565b600060208201905061419c6000830184613b28565b92915050565b60006060820190506141b76000830186613b28565b6141c46020830185613b28565b6141d16040830184614080565b949350505050565b60006080820190506141ee6000830187613b28565b6141fb6020830186613b28565b6142086040830185614080565b818103606083015261421a8184613b83565b905095945050505050565b600060208201905061423a6000830184613b4e565b92915050565b60006020820190506142556000830184613b5d565b92915050565b60006080820190506142706000830187613b5d565b61427d60208301866140a6565b61428a6040830185613b5d565b6142976060830184613b5d565b95945050505050565b60006020820190506142b56000830184613bed565b92915050565b600060208201905081810360008301526142d58184613bfc565b905092915050565b600060208201905081810360008301526142f681613c89565b9050919050565b6000602082019050818103600083015261431681613ccf565b9050919050565b6000602082019050818103600083015261433681613cf2565b9050919050565b6000602082019050818103600083015261435681613d15565b9050919050565b6000602082019050818103600083015261437681613d38565b9050919050565b6000602082019050818103600083015261439681613d5b565b9050919050565b600060208201905081810360008301526143b681613d7e565b9050919050565b600060208201905081810360008301526143d681613da1565b9050919050565b600060208201905081810360008301526143f681613dc4565b9050919050565b6000602082019050818103600083015261441681613de7565b9050919050565b6000602082019050818103600083015261443681613e0a565b9050919050565b6000602082019050818103600083015261445681613e2d565b9050919050565b6000602082019050818103600083015261447681613e50565b9050919050565b6000602082019050818103600083015261449681613e73565b9050919050565b600060208201905081810360008301526144b681613e96565b9050919050565b600060208201905081810360008301526144d681613eb9565b9050919050565b600060208201905081810360008301526144f681613edc565b9050919050565b6000602082019050818103600083015261451681613eff565b9050919050565b6000602082019050818103600083015261453681613f22565b9050919050565b6000602082019050818103600083015261455681613f45565b9050919050565b6000602082019050818103600083015261457681613f68565b9050919050565b6000602082019050818103600083015261459681613fae565b9050919050565b600060208201905081810360008301526145b681613fd1565b9050919050565b600060208201905081810360008301526145d681613ff4565b9050919050565b600060208201905081810360008301526145f68161403a565b9050919050565b600060208201905081810360008301526146168161405d565b9050919050565b60006020820190506146326000830184614080565b92915050565b6000614642614653565b905061464e828261496f565b919050565b6000604051905090565b600067ffffffffffffffff82111561467857614677614adf565b5b61468182614b0e565b9050602081019050919050565b600067ffffffffffffffff8211156146a9576146a8614adf565b5b6146b282614b0e565b9050602081019050919050565b600081519050919050565b600081519050919050565b600082825260208201905092915050565b600081905092915050565b600082825260208201905092915050565b600081905092915050565b600061471882614896565b915061472383614896565b9250827fffffffffffffffffffffffffffffffffffffffffffffffffffffffffffffffff0382111561475857614757614a52565b5b828201905092915050565b600061476e82614896565b915061477983614896565b92508261478957614788614a81565b5b828204905092915050565b600061479f82614896565b91506147aa83614896565b9250817fffffffffffffffffffffffffffffffffffffffffffffffffffffffffffffffff04831182151516156147e3576147e2614a52565b5b828202905092915050565b60006147f982614896565b915061480483614896565b92508282101561481757614816614a52565b5b828203905092915050565b600061482d82614876565b9050919050565b60008115159050919050565b6000819050919050565b60007fffffffff0000000000000000000000000000000000000000000000000000000082169050919050565b600073ffffffffffffffffffffffffffffffffffffffff82169050919050565b6000819050919050565b600060ff82169050919050565b60006148b8826148bf565b9050919050565b60006148ca82614876565b9050919050565b82818337600083830152505050565b60005b838110156148fe5780820151818401526020810190506148e3565b8381111561490d576000848401525b50505050565b600061491e82614896565b9150600082141561493257614931614a52565b5b600182039050919050565b6000600282049050600182168061495557607f821691505b6020821081141561496957614968614ab0565b5b50919050565b61497882614b0e565b810181811067ffffffffffffffff8211171561499757614996614adf565b5b80604052505050565b60006149ab82614896565b91507fffffffffffffffffffffffffffffffffffffffffffffffffffffffffffffffff8214156149de576149dd614a52565b5b600182019050919050565b60006149f482614a05565b9050919050565b6000819050919050565b6000614a1082614b1f565b9050919050565b6000819050919050565b6000614a2c82614896565b9150614a3783614896565b925082614a4757614a46614a81565b5b828206905092915050565b7f4e487b7100000000000000000000000000000000000000000000000000000000600052601160045260246000fd5b7f4e487b7100000000000000000000000000000000000000000000000000000000600052601260045260246000fd5b7f4e487b7100000000000000000000000000000000000000000000000000000000600052602260045260246000fd5b7f4e487b7100000000000000000000000000000000000000000000000000000000600052604160045260246000fd5b6000601f19601f8301169050919050565b60008160601b9050919050565b7f464d5f4845524f5f47454e455241544500000000000000000000000000000000600082015250565b7f537472696e67733a20686578206c656e67746820696e73756666696369656e74600082015250565b7f19457468657265756d205369676e6564204d6573736167653a0a333200000000600082015250565b7f464d3a2063616c6c6572206973206e6f74206f776e6572206e6f72206170707260008201527f6f76656400000000000000000000000000000000000000000000000000000000602082015250565b7f455243373231456e756d657261626c653a206f776e657220696e646578206f7560008201527f74206f6620626f756e6473000000000000000000000000000000000000000000602082015250565b7f4552433732313a207472616e7366657220746f206e6f6e20455243373231526560008201527f63656976657220696d706c656d656e7465720000000000000000000000000000602082015250565b7f4552433732313a20746f6b656e20616c7265616479206d696e74656400000000600082015250565b7f464d3a20696e76616c6964207369676e6174757265206c656e67746800000000600082015250565b7f4552433732313a207472616e7366657220746f20746865207a65726f2061646460008201527f7265737300000000000000000000000000000000000000000000000000000000602082015250565b7f4552433732313a20617070726f766520746f2063616c6c657200000000000000600082015250565b7f416464726573733a20696e73756666696369656e742062616c616e636520666f60008201527f722063616c6c0000000000000000000000000000000000000000000000000000602082015250565b7f4552433732313a206f70657261746f7220717565727920666f72206e6f6e657860008201527f697374656e7420746f6b656e0000000000000000000000000000000000000000602082015250565b7f4552433732313a20617070726f76652063616c6c6572206973206e6f74206f7760008201527f6e6572206e6f7220617070726f76656420666f7220616c6c0000000000000000602082015250565b7f4552433732313a2062616c616e636520717565727920666f7220746865207a6560008201527f726f206164647265737300000000000000000000000000000000000000000000602082015250565b7f4552433732313a206f776e657220717565727920666f72206e6f6e657869737460008201527f656e7420746f6b656e0000000000000000000000000000000000000000000000602082015250565b7f4552433732313a206d696e7420746f20746865207a65726f2061646472657373600082015250565b7f4552433732313a20617070726f76656420717565727920666f72206e6f6e657860008201527f697374656e7420746f6b656e0000000000000000000000000000000000000000602082015250565b7f4552433732313a207472616e73666572206f6620746f6b656e2074686174206960008201527f73206e6f74206f776e0000000000000000000000000000000000000000000000602082015250565b7f4552433732314d657461646174613a2055524920717565727920666f72206e6f60008201527f6e6578697374656e7420746f6b656e0000000000000000000000000000000000602082015250565b7f4552433732313a20617070726f76616c20746f2063757272656e74206f776e6560008201527f7200000000000000000000000000000000000000000000000000000000000000602082015250565b7f4552433732313a207472616e736665722063616c6c6572206973206e6f74206f60008201527f776e6572206e6f7220617070726f766564000000000000000000000000000000602082015250565b7f416464726573733a2063616c6c20746f206e6f6e2d636f6e7472616374000000600082015250565b7f455243373231456e756d657261626c653a20676c6f62616c20696e646578206f60008201527f7574206f6620626f756e64730000000000000000000000000000000000000000602082015250565b7f416363657373436f6e74726f6c3a206163636f756e7420000000000000000000600082015250565b7f464d3a206865726f494420657869737400000000000000000000000000000000600082015250565b7f5361666545524332303a204552433230206f7065726174696f6e20646964206e60008201527f6f74207375636365656400000000000000000000000000000000000000000000602082015250565b7f464d3a20696e76616c6964206164647265737300000000000000000000000000600082015250565b7f206973206d697373696e6720726f6c6520000000000000000000000000000000600082015250565b7f416363657373436f6e74726f6c3a2063616e206f6e6c792072656e6f756e636560008201527f20726f6c657320666f722073656c660000000000000000000000000000000000602082015250565b7f464d3a20696e76616c6964207369676e65720000000000000000000000000000600082015250565b61528981614822565b811461529457600080fd5b50565b6152a081614834565b81146152ab57600080fd5b50565b6152b781614840565b81146152c257600080fd5b50565b6152ce8161484a565b81146152d957600080fd5b50565b6152e581614896565b81146152f057600080fd5b5056fea26469706673582212201f4605e8a6b3cd2cbd49356e8d856a556d454a7094ba0a05211f31207f0bf29b64736f6c63430008040033",
  "linkReferences": {},
  "deployedLinkReferences": {}
}