{
  "_format": "hh-sol-artifact-1",
  "contractName": "LandB",
  "sourceName": "contracts/LandB.sol",
  "abi": [
    {
      "inputs": [],
      "stateMutability": "nonpayable",
      "type": "constructor"
    },
    {
      "anonymous": false,
      "inputs": [
        {
          "indexed": true,
          "internalType": "address",
          "name": "owner",
          "type": "address"
        },
        {
          "indexed": true,
          "internalType": "address",
          "name": "approved",
          "type": "address"
        },
        {
          "indexed": true,
          "internalType": "uint256",
          "name": "tokenId",
          "type": "uint256"
        }
      ],
      "name": "Approval",
      "type": "event"
    },
    {
      "anonymous": false,
      "inputs": [
        {
          "indexed": true,
          "internalType": "address",
          "name": "owner",
          "type": "address"
        },
        {
          "indexed": true,
          "internalType": "address",
          "name": "operator",
          "type": "address"
        },
        {
          "indexed": false,
          "internalType": "bool",
          "name": "approved",
          "type": "bool"
        }
      ],
      "name": "ApprovalForAll",
      "type": "event"
    },
    {
      "anonymous": false,
      "inputs": [
        {
          "indexed": true,
          "internalType": "uint256",
          "name": "tokenId",
          "type": "uint256"
        },
        {
          "indexed": true,
          "internalType": "address",
          "name": "to",
          "type": "address"
        }
      ],
      "name": "Burn",
      "type": "event"
    },
    {
      "anonymous": false,
      "inputs": [
        {
          "indexed": true,
          "internalType": "bytes32",
          "name": "role",
          "type": "bytes32"
        },
        {
          "indexed": true,
          "internalType": "bytes32",
          "name": "previousAdminRole",
          "type": "bytes32"
        },
        {
          "indexed": true,
          "internalType": "bytes32",
          "name": "newAdminRole",
          "type": "bytes32"
        }
      ],
      "name": "RoleAdminChanged",
      "type": "event"
    },
    {
      "anonymous": false,
      "inputs": [
        {
          "indexed": true,
          "internalType": "bytes32",
          "name": "role",
          "type": "bytes32"
        },
        {
          "indexed": true,
          "internalType": "address",
          "name": "account",
          "type": "address"
        },
        {
          "indexed": true,
          "internalType": "address",
          "name": "sender",
          "type": "address"
        }
      ],
      "name": "RoleGranted",
      "type": "event"
    },
    {
      "anonymous": false,
      "inputs": [
        {
          "indexed": true,
          "internalType": "bytes32",
          "name": "role",
          "type": "bytes32"
        },
        {
          "indexed": true,
          "internalType": "address",
          "name": "account",
          "type": "address"
        },
        {
          "indexed": true,
          "internalType": "address",
          "name": "sender",
          "type": "address"
        }
      ],
      "name": "RoleRevoked",
      "type": "event"
    },
    {
      "anonymous": false,
      "inputs": [
        {
          "indexed": true,
          "internalType": "address",
          "name": "from",
          "type": "address"
        },
        {
          "indexed": true,
          "internalType": "address",
          "name": "to",
          "type": "address"
        },
        {
          "indexed": true,
          "internalType": "uint256",
          "name": "tokenId",
          "type": "uint256"
        }
      ],
      "name": "Transfer",
      "type": "event"
    },
    {
      "inputs": [],
      "name": "DEFAULT_ADMIN_ROLE",
      "outputs": [
        {
          "internalType": "bytes32",
          "name": "",
          "type": "bytes32"
        }
      ],
      "stateMutability": "view",
      "type": "function"
    },
    {
      "inputs": [],
      "name": "MINTER_ROLE",
      "outputs": [
        {
          "internalType": "bytes32",
          "name": "",
          "type": "bytes32"
        }
      ],
      "stateMutability": "view",
      "type": "function"
    },
    {
      "inputs": [
        {
          "internalType": "address",
          "name": "_signer",
          "type": "address"
        }
      ],
      "name": "addSigner",
      "outputs": [],
      "stateMutability": "nonpayable",
      "type": "function"
    },
    {
      "inputs": [
        {
          "internalType": "address",
          "name": "to",
          "type": "address"
        },
        {
          "internalType": "uint256",
          "name": "tokenId",
          "type": "uint256"
        }
      ],
      "name": "approve",
      "outputs": [],
      "stateMutability": "nonpayable",
      "type": "function"
    },
    {
      "inputs": [
        {
          "internalType": "address",
          "name": "owner",
          "type": "address"
        }
      ],
      "name": "balanceOf",
      "outputs": [
        {
          "internalType": "uint256",
          "name": "",
          "type": "uint256"
        }
      ],
      "stateMutability": "view",
      "type": "function"
    },
    {
      "inputs": [
        {
          "internalType": "uint256",
          "name": "tokenId",
          "type": "uint256"
        },
        {
          "internalType": "address",
          "name": "to",
          "type": "address"
        }
      ],
      "name": "burn",
      "outputs": [],
      "stateMutability": "nonpayable",
      "type": "function"
    },
    {
      "inputs": [
        {
          "internalType": "address",
          "name": "to",
          "type": "address"
        },
        {
          "internalType": "uint256",
          "name": "landId",
          "type": "uint256"
        },
        {
          "internalType": "bytes",
          "name": "signature",
          "type": "bytes"
        }
      ],
      "name": "claimLand",
      "outputs": [],
      "stateMutability": "nonpayable",
      "type": "function"
    },
    {
      "inputs": [],
      "name": "fameAddress",
      "outputs": [
        {
          "internalType": "contract IERC20",
          "name": "",
          "type": "address"
        }
      ],
      "stateMutability": "view",
      "type": "function"
    },
    {
      "inputs": [],
      "name": "famePrice",
      "outputs": [
        {
          "internalType": "uint256",
          "name": "",
          "type": "uint256"
        }
      ],
      "stateMutability": "view",
      "type": "function"
    },
    {
      "inputs": [],
      "name": "feeUSDT",
      "outputs": [
        {
          "internalType": "uint256",
          "name": "",
          "type": "uint256"
        }
      ],
      "stateMutability": "view",
      "type": "function"
    },
    {
      "inputs": [
        {
          "internalType": "uint256",
          "name": "tokenId",
          "type": "uint256"
        }
      ],
      "name": "getApproved",
      "outputs": [
        {
          "internalType": "address",
          "name": "",
          "type": "address"
        }
      ],
      "stateMutability": "view",
      "type": "function"
    },
    {
      "inputs": [],
      "name": "getFee",
      "outputs": [
        {
          "internalType": "uint256",
          "name": "marketFee",
          "type": "uint256"
        }
      ],
      "stateMutability": "view",
      "type": "function"
    },
    {
      "inputs": [
        {
          "internalType": "bytes32",
          "name": "role",
          "type": "bytes32"
        }
      ],
      "name": "getRoleAdmin",
      "outputs": [
        {
          "internalType": "bytes32",
          "name": "",
          "type": "bytes32"
        }
      ],
      "stateMutability": "view",
      "type": "function"
    },
    {
      "inputs": [
        {
          "internalType": "bytes32",
          "name": "role",
          "type": "bytes32"
        },
        {
          "internalType": "address",
          "name": "account",
          "type": "address"
        }
      ],
      "name": "grantRole",
      "outputs": [],
      "stateMutability": "nonpayable",
      "type": "function"
    },
    {
      "inputs": [
        {
          "internalType": "bytes32",
          "name": "role",
          "type": "bytes32"
        },
        {
          "internalType": "address",
          "name": "account",
          "type": "address"
        }
      ],
      "name": "hasRole",
      "outputs": [
        {
          "internalType": "bool",
          "name": "",
          "type": "bool"
        }
      ],
      "stateMutability": "view",
      "type": "function"
    },
    {
      "inputs": [
        {
          "internalType": "address",
          "name": "owner",
          "type": "address"
        },
        {
          "internalType": "address",
          "name": "operator",
          "type": "address"
        }
      ],
      "name": "isApprovedForAll",
      "outputs": [
        {
          "internalType": "bool",
          "name": "",
          "type": "bool"
        }
      ],
      "stateMutability": "view",
      "type": "function"
    },
    {
      "inputs": [],
      "name": "name",
      "outputs": [
        {
          "internalType": "string",
          "name": "",
          "type": "string"
        }
      ],
      "stateMutability": "view",
      "type": "function"
    },
    {
      "inputs": [
        {
          "internalType": "uint256",
          "name": "tokenId",
          "type": "uint256"
        }
      ],
      "name": "ownerOf",
      "outputs": [
        {
          "internalType": "address",
          "name": "",
          "type": "address"
        }
      ],
      "stateMutability": "view",
      "type": "function"
    },
    {
      "inputs": [],
      "name": "receiveFun",
      "outputs": [
        {
          "internalType": "address",
          "name": "",
          "type": "address"
        }
      ],
      "stateMutability": "view",
      "type": "function"
    },
    {
      "inputs": [
        {
          "internalType": "address",
          "name": "_signer",
          "type": "address"
        }
      ],
      "name": "removeSigner",
      "outputs": [],
      "stateMutability": "nonpayable",
      "type": "function"
    },
    {
      "inputs": [
        {
          "internalType": "bytes32",
          "name": "role",
          "type": "bytes32"
        },
        {
          "internalType": "address",
          "name": "account",
          "type": "address"
        }
      ],
      "name": "renounceRole",
      "outputs": [],
      "stateMutability": "nonpayable",
      "type": "function"
    },
    {
      "inputs": [
        {
          "internalType": "bytes32",
          "name": "role",
          "type": "bytes32"
        },
        {
          "internalType": "address",
          "name": "account",
          "type": "address"
        }
      ],
      "name": "revokeRole",
      "outputs": [],
      "stateMutability": "nonpayable",
      "type": "function"
    },
    {
      "inputs": [
        {
          "internalType": "address",
          "name": "to",
          "type": "address"
        },
        {
          "internalType": "uint256",
          "name": "tokenId",
          "type": "uint256"
        }
      ],
      "name": "safeMint",
      "outputs": [],
      "stateMutability": "nonpayable",
      "type": "function"
    },
    {
      "inputs": [
        {
          "internalType": "address",
          "name": "from",
          "type": "address"
        },
        {
          "internalType": "address",
          "name": "to",
          "type": "address"
        },
        {
          "internalType": "uint256",
          "name": "tokenId",
          "type": "uint256"
        }
      ],
      "name": "safeTransferFrom",
      "outputs": [],
      "stateMutability": "nonpayable",
      "type": "function"
    },
    {
      "inputs": [
        {
          "internalType": "address",
          "name": "operator",
          "type": "address"
        },
        {
          "internalType": "bool",
          "name": "approved",
          "type": "bool"
        }
      ],
      "name": "setApprovalForAll",
      "outputs": [],
      "stateMutability": "nonpayable",
      "type": "function"
    },
    {
      "inputs": [
        {
          "internalType": "string",
          "name": "baseUrl",
          "type": "string"
        }
      ],
      "name": "setBaseUrl",
      "outputs": [],
      "stateMutability": "nonpayable",
      "type": "function"
    },
    {
      "inputs": [
        {
          "internalType": "address",
          "name": "_fameAddress",
          "type": "address"
        }
      ],
      "name": "setFameAddress",
      "outputs": [],
      "stateMutability": "nonpayable",
      "type": "function"
    },
    {
      "inputs": [
        {
          "internalType": "uint256",
          "name": "_famePrice",
          "type": "uint256"
        }
      ],
      "name": "setFamePrice",
      "outputs": [],
      "stateMutability": "nonpayable",
      "type": "function"
    },
    {
      "inputs": [
        {
          "internalType": "uint256",
          "name": "_minFeeUSDT",
          "type": "uint256"
        }
      ],
      "name": "setFeeUSDT",
      "outputs": [],
      "stateMutability": "nonpayable",
      "type": "function"
    },
    {
      "inputs": [
        {
          "internalType": "address",
          "name": "_receiveFun",
          "type": "address"
        }
      ],
      "name": "setReceiveFunAddress",
      "outputs": [],
      "stateMutability": "nonpayable",
      "type": "function"
    },
    {
      "inputs": [
        {
          "internalType": "address",
          "name": "",
          "type": "address"
        }
      ],
      "name": "signers",
      "outputs": [
        {
          "internalType": "bool",
          "name": "",
          "type": "bool"
        }
      ],
      "stateMutability": "view",
      "type": "function"
    },
    {
      "inputs": [
        {
          "internalType": "bytes4",
          "name": "interfaceId",
          "type": "bytes4"
        }
      ],
      "name": "supportsInterface",
      "outputs": [
        {
          "internalType": "bool",
          "name": "",
          "type": "bool"
        }
      ],
      "stateMutability": "view",
      "type": "function"
    },
    {
      "inputs": [],
      "name": "symbol",
      "outputs": [
        {
          "internalType": "string",
          "name": "",
          "type": "string"
        }
      ],
      "stateMutability": "view",
      "type": "function"
    },
    {
      "inputs": [
        {
          "internalType": "uint256",
          "name": "index",
          "type": "uint256"
        }
      ],
      "name": "tokenByIndex",
      "outputs": [
        {
          "internalType": "uint256",
          "name": "",
          "type": "uint256"
        }
      ],
      "stateMutability": "view",
      "type": "function"
    },
    {
      "inputs": [
        {
          "internalType": "address",
          "name": "owner",
          "type": "address"
        },
        {
          "internalType": "uint256",
          "name": "index",
          "type": "uint256"
        }
      ],
      "name": "tokenOfOwnerByIndex",
      "outputs": [
        {
          "internalType": "uint256",
          "name": "",
          "type": "uint256"
        }
      ],
      "stateMutability": "view",
      "type": "function"
    },
    {
      "inputs": [
        {
          "internalType": "uint256",
          "name": "tokenId",
          "type": "uint256"
        }
      ],
      "name": "tokenURI",
      "outputs": [
        {
          "internalType": "string",
          "name": "",
          "type": "string"
        }
      ],
      "stateMutability": "view",
      "type": "function"
    },
    {
      "inputs": [],
      "name": "totalSupply",
      "outputs": [
        {
          "internalType": "uint256",
          "name": "",
          "type": "uint256"
        }
      ],
      "stateMutability": "view",
      "type": "function"
    },
    {
      "inputs": [
        {
          "internalType": "address",
          "name": "from",
          "type": "address"
        },
        {
          "internalType": "address",
          "name": "to",
          "type": "address"
        },
        {
          "internalType": "uint256",
          "name": "tokenId",
          "type": "uint256"
        }
      ],
      "name": "transferFrom",
      "outputs": [],
      "stateMutability": "nonpayable",
      "type": "function"
    }
  ],
  "bytecode": "0x60806040526101c2600e5561afc8600f553480156200001d57600080fd5b506040518060400160405280600481526020017f4c616e64000000000000000000000000000000000000000000000000000000008152506040518060400160405280600481526020017f4c414e44000000000000000000000000000000000000000000000000000000008152508160009080519060200190620000a29291906200029d565b508060019080519060200190620000bb9291906200029d565b505050620000d36000801b336200012260201b60201c565b620001057f9f2df0fed2c77648de5860a4cc508cd0818c85b8b8a1ab4ceeef8d981c8956a6336200012260201b60201c565b6200011c600b6200021460201b620017d91760201c565b620003b2565b6200013482826200022a60201b60201c565b62000210576001600a600084815260200190815260200160002060000160008373ffffffffffffffffffffffffffffffffffffffff1673ffffffffffffffffffffffffffffffffffffffff16815260200190815260200160002060006101000a81548160ff021916908315150217905550620001b56200029560201b60201c565b73ffffffffffffffffffffffffffffffffffffffff168173ffffffffffffffffffffffffffffffffffffffff16837f2f8788117e7eff1d82e926ec794901d17c78024a50270940304540a733656f0d60405160405180910390a45b5050565b6001816000016000828254019250508190555050565b6000600a600084815260200190815260200160002060000160008373ffffffffffffffffffffffffffffffffffffffff1673ffffffffffffffffffffffffffffffffffffffff16815260200190815260200160002060009054906101000a900460ff16905092915050565b600033905090565b828054620002ab906200034d565b90600052602060002090601f016020900481019282620002cf57600085556200031b565b82601f10620002ea57805160ff19168380011785556200031b565b828001600101855582156200031b579182015b828111156200031a578251825591602001919060010190620002fd565b5b5090506200032a91906200032e565b5090565b5b80821115620003495760008160009055506001016200032f565b5090565b600060028204905060018216806200036657607f821691505b602082108114156200037d576200037c62000383565b5b50919050565b7f4e487b7100000000000000000000000000000000000000000000000000000000600052602260045260246000fd5b61533f80620003c26000396000f3fe608060405234801561001057600080fd5b506004361061023d5760003560e01c806391d148541161013b578063c3c46ac6116100b8578063d547741f1161007c578063d547741f146106d6578063e985e9c5146106f2578063eb12d61e14610722578063f477b6a81461073e578063fcd3533c1461075a5761023d565b8063c3c46ac614610632578063c7c3268b1461064e578063c87b56dd1461066a578063ced72f871461069a578063d5391393146106b85761023d565b8063a217fddf116100ff578063a217fddf146105a2578063a22cb465146105c0578063a55d6fcf146105dc578063b782edf1146105fa578063b88d4fde146106165761023d565b806391d148541461050057806395d89b41146105305780639750b6ed1461054e578063a09a79501461056a578063a1448194146105865761023d565b80632f745c59116101c95780636352211e1161018d5780636352211e1461043457806370a0823114610464578063722fe5de14610494578063736c0d5b146104b25780638edea406146104e25761023d565b80632f745c591461037e57806336568abe146103ae57806342842e0e146103ca5780634f6ccce7146103e65780635ab801a6146104165761023d565b80630e316ab7116102105780630e316ab7146102dc57806318160ddd146102f857806323b872dd14610316578063248a9ca3146103325780632f2ff15d146103625761023d565b806301ffc9a71461024257806306fdde0314610272578063081812fc14610290578063095ea7b3146102c0575b600080fd5b61025c60048036038101906102579190613a46565b610776565b604051610269919061423b565b60405180910390f35b61027a610788565b60405161028791906142d1565b60405180910390f35b6102aa60048036038101906102a59190613ad9565b61081a565b6040516102b7919061419d565b60405180910390f35b6102da60048036038101906102d59190613910565b61089f565b005b6102f660048036038101906102f191906137a5565b6109b7565b005b610300610aed565b60405161030d9190614633565b60405180910390f35b610330600480360381019061032b919061380a565b610afa565b005b61034c600480360381019061034791906139e1565b610b5a565b6040516103599190614256565b60405180910390f35b61037c60048036038101906103779190613a0a565b610b7a565b005b61039860048036038101906103939190613910565b610ba3565b6040516103a59190614633565b60405180910390f35b6103c860048036038101906103c39190613a0a565b610c48565b005b6103e460048036038101906103df919061380a565b610ccb565b005b61040060048036038101906103fb9190613ad9565b610ceb565b60405161040d9190614633565b60405180910390f35b61041e610d82565b60405161042b91906142b6565b60405180910390f35b61044e60048036038101906104499190613ad9565b610da8565b60405161045b919061419d565b60405180910390f35b61047e600480360381019061047991906137a5565b610e5a565b60405161048b9190614633565b60405180910390f35b61049c610f12565b6040516104a99190614633565b60405180910390f35b6104cc60048036038101906104c791906137a5565b610f18565b6040516104d9919061423b565b60405180910390f35b6104ea610f38565b6040516104f79190614633565b60405180910390f35b61051a60048036038101906105159190613a0a565b610f3e565b604051610527919061423b565b60405180910390f35b610538610fa9565b60405161054591906142d1565b60405180910390f35b6105686004803603810190610563919061394c565b61103b565b005b610584600480360381019061057f91906137a5565b6111c7565b005b6105a0600480360381019061059b9190613910565b611221565b005b6105aa611262565b6040516105b79190614256565b60405180910390f35b6105da60048036038101906105d591906138d4565b611269565b005b6105e461127f565b6040516105f1919061419d565b60405180910390f35b610614600480360381019061060f9190613ad9565b6112a5565b005b610630600480360381019061062b9190613859565b6112c5565b005b61064c60048036038101906106479190613ad9565b611327565b005b61066860048036038101906106639190613a98565b611347565b005b610684600480360381019061067f9190613ad9565b611377565b60405161069191906142d1565b60405180910390f35b6106a261141e565b6040516106af9190614633565b60405180910390f35b6106c0611448565b6040516106cd9190614256565b60405180910390f35b6106f060048036038101906106eb9190613a0a565b61146c565b005b61070c600480360381019061070791906137ce565b611495565b604051610719919061423b565b60405180910390f35b61073c600480360381019061073791906137a5565b611529565b005b610758600480360381019061075391906137a5565b611660565b005b610774600480360381019061076f9190613b02565b6116ba565b005b6000610781826117ef565b9050919050565b60606000805461079790614953565b80601f01602080910402602001604051908101604052809291908181526020018280546107c390614953565b80156108105780601f106107e557610100808354040283529160200191610810565b820191906000526020600020905b8154815290600101906020018083116107f357829003601f168201915b5050505050905090565b600061082582611869565b610864576040517f08c379a000000000000000000000000000000000000000000000000000000000815260040161085b906144b3565b60405180910390fd5b6004600083815260200190815260200160002060009054906101000a900473ffffffffffffffffffffffffffffffffffffffff169050919050565b60006108aa82610da8565b90508073ffffffffffffffffffffffffffffffffffffffff168373ffffffffffffffffffffffffffffffffffffffff16141561091b576040517f08c379a000000000000000000000000000000000000000000000000000000000815260040161091290614513565b60405180910390fd5b8073ffffffffffffffffffffffffffffffffffffffff1661093a6118d5565b73ffffffffffffffffffffffffffffffffffffffff1614806109695750610968816109636118d5565b611495565b5b6109a8576040517f08c379a000000000000000000000000000000000000000000000000000000000815260040161099f90614433565b60405180910390fd5b6109b283836118dd565b505050565b6000801b6109cc816109c76118d5565b611996565b600073ffffffffffffffffffffffffffffffffffffffff168273ffffffffffffffffffffffffffffffffffffffff1614158015610a525750600d60008373ffffffffffffffffffffffffffffffffffffffff1673ffffffffffffffffffffffffffffffffffffffff16815260200190815260200160002060009054906101000a900460ff165b610a91576040517f08c379a0000000000000000000000000000000000000000000000000000000008152600401610a88906145d3565b60405180910390fd5b6000600d60008473ffffffffffffffffffffffffffffffffffffffff1673ffffffffffffffffffffffffffffffffffffffff16815260200190815260200160002060006101000a81548160ff0219169083151502179055505050565b6000600880549050905090565b610b0b610b056118d5565b82611a33565b610b4a576040517f08c379a0000000000000000000000000000000000000000000000000000000008152600401610b4190614533565b60405180910390fd5b610b55838383611b11565b505050565b6000600a6000838152602001908152602001600020600101549050919050565b610b8382610b5a565b610b9481610b8f6118d5565b611996565b610b9e8383611d6d565b505050565b6000610bae83610e5a565b8210610bef576040517f08c379a0000000000000000000000000000000000000000000000000000000008152600401610be690614333565b60405180910390fd5b600660008473ffffffffffffffffffffffffffffffffffffffff1673ffffffffffffffffffffffffffffffffffffffff168152602001908152602001600020600083815260200190815260200160002054905092915050565b610c506118d5565b73ffffffffffffffffffffffffffffffffffffffff168173ffffffffffffffffffffffffffffffffffffffff1614610cbd576040517f08c379a0000000000000000000000000000000000000000000000000000000008152600401610cb4906145f3565b60405180910390fd5b610cc78282611e4e565b5050565b610ce6838383604051806020016040528060008152506112c5565b505050565b6000610cf5610aed565b8210610d36576040517f08c379a0000000000000000000000000000000000000000000000000000000008152600401610d2d90614573565b60405180910390fd5b60088281548110610d70577f4e487b7100000000000000000000000000000000000000000000000000000000600052603260045260246000fd5b90600052602060002001549050919050565b601060009054906101000a900473ffffffffffffffffffffffffffffffffffffffff1681565b6000806002600084815260200190815260200160002060009054906101000a900473ffffffffffffffffffffffffffffffffffffffff169050600073ffffffffffffffffffffffffffffffffffffffff168173ffffffffffffffffffffffffffffffffffffffff161415610e51576040517f08c379a0000000000000000000000000000000000000000000000000000000008152600401610e4890614473565b60405180910390fd5b80915050919050565b60008073ffffffffffffffffffffffffffffffffffffffff168273ffffffffffffffffffffffffffffffffffffffff161415610ecb576040517f08c379a0000000000000000000000000000000000000000000000000000000008152600401610ec290614453565b60405180910390fd5b600360008373ffffffffffffffffffffffffffffffffffffffff1673ffffffffffffffffffffffffffffffffffffffff168152602001908152602001600020549050919050565b600e5481565b600d6020528060005260406000206000915054906101000a900460ff1681565b600f5481565b6000600a600084815260200190815260200160002060000160008373ffffffffffffffffffffffffffffffffffffffff1673ffffffffffffffffffffffffffffffffffffffff16815260200190815260200160002060009054906101000a900460ff16905092915050565b606060018054610fb890614953565b80601f0160208091040260200160405190810160405280929190818152602001828054610fe490614953565b80156110315780601f1061100657610100808354040283529160200191611031565b820191906000526020600020905b81548152906001019060200180831161101457829003601f168201915b5050505050905090565b61104483611869565b15611084576040517f08c379a000000000000000000000000000000000000000000000000000000000815260040161107b90614593565b60405180910390fd5b6000848460405160200161109992919061412c565b604051602081830303815290604052805190602001206040516020016110bf9190614106565b60405160208183030381529060405280519060200120905060006111278285858080601f016020809104026020016040519081016040528093929190818152602001838380828437600081840152601f19601f82011690508083019250505050505050611f30565b9050600d60008273ffffffffffffffffffffffffffffffffffffffff1673ffffffffffffffffffffffffffffffffffffffff16815260200190815260200160002060009054906101000a900460ff166111b5576040517f08c379a00000000000000000000000000000000000000000000000000000000081526004016111ac90614613565b60405180910390fd5b6111bf8686611f9f565b505050505050565b6000801b6111dc816111d76118d5565b611996565b81601060006101000a81548173ffffffffffffffffffffffffffffffffffffffff021916908373ffffffffffffffffffffffffffffffffffffffff1602179055505050565b7f9f2df0fed2c77648de5860a4cc508cd0818c85b8b8a1ab4ceeef8d981c8956a66112538161124e6118d5565b611996565b61125d8383611f9f565b505050565b6000801b81565b61127b6112746118d5565b8383611fbd565b5050565b601160009054906101000a900473ffffffffffffffffffffffffffffffffffffffff1681565b6000801b6112ba816112b56118d5565b611996565b81600e819055505050565b6112d66112d06118d5565b83611a33565b611315576040517f08c379a000000000000000000000000000000000000000000000000000000000815260040161130c90614533565b60405180910390fd5b6113218484848461212a565b50505050565b6000801b61133c816113376118d5565b611996565b81600f819055505050565b6000801b61135c816113576118d5565b611996565b81600c9080519060200190611372929190613555565b505050565b606061138282611869565b6113c1576040517f08c379a00000000000000000000000000000000000000000000000000000000081526004016113b8906144f3565b60405180910390fd5b60006113cb612186565b905060008151116113eb5760405180602001604052806000815250611416565b806113f584612218565b6040516020016114069291906140e2565b6040516020818303038152906040525b915050919050565b6000600e54670de0b6b3a7640000600f5461143991906147aa565b6114439190614779565b905090565b7f9f2df0fed2c77648de5860a4cc508cd0818c85b8b8a1ab4ceeef8d981c8956a681565b61147582610b5a565b611486816114816118d5565b611996565b6114908383611e4e565b505050565b6000600560008473ffffffffffffffffffffffffffffffffffffffff1673ffffffffffffffffffffffffffffffffffffffff16815260200190815260200160002060008373ffffffffffffffffffffffffffffffffffffffff1673ffffffffffffffffffffffffffffffffffffffff16815260200190815260200160002060009054906101000a900460ff16905092915050565b6000801b61153e816115396118d5565b611996565b600073ffffffffffffffffffffffffffffffffffffffff168273ffffffffffffffffffffffffffffffffffffffff16141580156115c55750600d60008373ffffffffffffffffffffffffffffffffffffffff1673ffffffffffffffffffffffffffffffffffffffff16815260200190815260200160002060009054906101000a900460ff16155b611604576040517f08c379a00000000000000000000000000000000000000000000000000000000081526004016115fb906145d3565b60405180910390fd5b6001600d60008473ffffffffffffffffffffffffffffffffffffffff1673ffffffffffffffffffffffffffffffffffffffff16815260200190815260200160002060006101000a81548160ff0219169083151502179055505050565b6000801b611675816116706118d5565b611996565b81601160006101000a81548173ffffffffffffffffffffffffffffffffffffffff021916908373ffffffffffffffffffffffffffffffffffffffff1602179055505050565b6116cb6116c56118d5565b83611a33565b61170a576040517f08c379a000000000000000000000000000000000000000000000000000000000815260040161170190614313565b60405180910390fd5b611713826123c5565b600061171d61141e565b905061179033601160009054906101000a900473ffffffffffffffffffffffffffffffffffffffff1683601060009054906101000a900473ffffffffffffffffffffffffffffffffffffffff1673ffffffffffffffffffffffffffffffffffffffff166124d6909392919063ffffffff16565b8173ffffffffffffffffffffffffffffffffffffffff16837ff6554c3a5d28e08c120b5a69c7edbaf52f935bd2596a60b8a18e282cd257cddb60405160405180910390a3505050565b6001816000016000828254019250508190555050565b60007f7965db0b000000000000000000000000000000000000000000000000000000007bffffffffffffffffffffffffffffffffffffffffffffffffffffffff1916827bffffffffffffffffffffffffffffffffffffffffffffffffffffffff1916148061186257506118618261255f565b5b9050919050565b60008073ffffffffffffffffffffffffffffffffffffffff166002600084815260200190815260200160002060009054906101000a900473ffffffffffffffffffffffffffffffffffffffff1673ffffffffffffffffffffffffffffffffffffffff1614159050919050565b600033905090565b816004600083815260200190815260200160002060006101000a81548173ffffffffffffffffffffffffffffffffffffffff021916908373ffffffffffffffffffffffffffffffffffffffff160217905550808273ffffffffffffffffffffffffffffffffffffffff1661195083610da8565b73ffffffffffffffffffffffffffffffffffffffff167f8c5be1e5ebec7d5bd14f71427d1e84f3dd0314c0f7b2291e5b200ac8c7c3b92560405160405180910390a45050565b6119a08282610f3e565b611a2f576119c58173ffffffffffffffffffffffffffffffffffffffff1660146125d9565b6119d38360001c60206125d9565b6040516020016119e4929190614163565b6040516020818303038152906040526040517f08c379a0000000000000000000000000000000000000000000000000000000008152600401611a2691906142d1565b60405180910390fd5b5050565b6000611a3e82611869565b611a7d576040517f08c379a0000000000000000000000000000000000000000000000000000000008152600401611a7490614413565b60405180910390fd5b6000611a8883610da8565b90508073ffffffffffffffffffffffffffffffffffffffff168473ffffffffffffffffffffffffffffffffffffffff161480611af757508373ffffffffffffffffffffffffffffffffffffffff16611adf8461081a565b73ffffffffffffffffffffffffffffffffffffffff16145b80611b085750611b078185611495565b5b91505092915050565b8273ffffffffffffffffffffffffffffffffffffffff16611b3182610da8565b73ffffffffffffffffffffffffffffffffffffffff1614611b87576040517f08c379a0000000000000000000000000000000000000000000000000000000008152600401611b7e906144d3565b60405180910390fd5b600073ffffffffffffffffffffffffffffffffffffffff168273ffffffffffffffffffffffffffffffffffffffff161415611bf7576040517f08c379a0000000000000000000000000000000000000000000000000000000008152600401611bee906143b3565b60405180910390fd5b611c028383836128d3565b611c0d6000826118dd565b6001600360008573ffffffffffffffffffffffffffffffffffffffff1673ffffffffffffffffffffffffffffffffffffffff1681526020019081526020016000206000828254611c5d9190614804565b925050819055506001600360008473ffffffffffffffffffffffffffffffffffffffff1673ffffffffffffffffffffffffffffffffffffffff1681526020019081526020016000206000828254611cb49190614723565b92505081905550816002600083815260200190815260200160002060006101000a81548173ffffffffffffffffffffffffffffffffffffffff021916908373ffffffffffffffffffffffffffffffffffffffff160217905550808273ffffffffffffffffffffffffffffffffffffffff168473ffffffffffffffffffffffffffffffffffffffff167fddf252ad1be2c89b69c2b068fc378daa952ba7f163c4a11628f55a4df523b3ef60405160405180910390a4505050565b611d778282610f3e565b611e4a576001600a600084815260200190815260200160002060000160008373ffffffffffffffffffffffffffffffffffffffff1673ffffffffffffffffffffffffffffffffffffffff16815260200190815260200160002060006101000a81548160ff021916908315150217905550611def6118d5565b73ffffffffffffffffffffffffffffffffffffffff168173ffffffffffffffffffffffffffffffffffffffff16837f2f8788117e7eff1d82e926ec794901d17c78024a50270940304540a733656f0d60405160405180910390a45b5050565b611e588282610f3e565b15611f2c576000600a600084815260200190815260200160002060000160008373ffffffffffffffffffffffffffffffffffffffff1673ffffffffffffffffffffffffffffffffffffffff16815260200190815260200160002060006101000a81548160ff021916908315150217905550611ed16118d5565b73ffffffffffffffffffffffffffffffffffffffff168173ffffffffffffffffffffffffffffffffffffffff16837ff6391f5c32d9c69d2a47ea670b442974b53935d1edc7fd64eb21e047a839171b60405160405180910390a45b5050565b600080600080611f3f856128e3565b92509250925060018682858560405160008152602001604052604051611f689493929190614271565b6020604051602081039080840390855afa158015611f8a573d6000803e3d6000fd5b50505060206040510351935050505092915050565b611fb982826040518060200160405280600081525061294b565b5050565b8173ffffffffffffffffffffffffffffffffffffffff168373ffffffffffffffffffffffffffffffffffffffff16141561202c576040517f08c379a0000000000000000000000000000000000000000000000000000000008152600401612023906143d3565b60405180910390fd5b80600560008573ffffffffffffffffffffffffffffffffffffffff1673ffffffffffffffffffffffffffffffffffffffff16815260200190815260200160002060008473ffffffffffffffffffffffffffffffffffffffff1673ffffffffffffffffffffffffffffffffffffffff16815260200190815260200160002060006101000a81548160ff0219169083151502179055508173ffffffffffffffffffffffffffffffffffffffff168373ffffffffffffffffffffffffffffffffffffffff167f17307eab39ab6107e8899845ad3d59bd9653f200f220920489ca2b5937696c318360405161211d919061423b565b60405180910390a3505050565b612135848484611b11565b612141848484846129a6565b612180576040517f08c379a000000000000000000000000000000000000000000000000000000000815260040161217790614353565b60405180910390fd5b50505050565b6060600c805461219590614953565b80601f01602080910402602001604051908101604052809291908181526020018280546121c190614953565b801561220e5780601f106121e35761010080835404028352916020019161220e565b820191906000526020600020905b8154815290600101906020018083116121f157829003601f168201915b5050505050905090565b60606000821415612260576040518060400160405280600181526020017f300000000000000000000000000000000000000000000000000000000000000081525090506123c0565b600082905060005b6000821461229257808061227b906149b6565b915050600a8261228b9190614779565b9150612268565b60008167ffffffffffffffff8111156122d4577f4e487b7100000000000000000000000000000000000000000000000000000000600052604160045260246000fd5b6040519080825280601f01601f1916602001820160405280156123065781602001600182028036833780820191505090505b5090505b600085146123b95760018261231f9190614804565b9150600a8561232e9190614a37565b603061233a9190614723565b60f81b818381518110612376577f4e487b7100000000000000000000000000000000000000000000000000000000600052603260045260246000fd5b60200101907effffffffffffffffffffffffffffffffffffffffffffffffffffffffffffff1916908160001a905350600a856123b29190614779565b945061230a565b8093505050505b919050565b60006123d082610da8565b90506123de816000846128d3565b6123e96000836118dd565b6001600360008373ffffffffffffffffffffffffffffffffffffffff1673ffffffffffffffffffffffffffffffffffffffff16815260200190815260200160002060008282546124399190614804565b925050819055506002600083815260200190815260200160002060006101000a81549073ffffffffffffffffffffffffffffffffffffffff021916905581600073ffffffffffffffffffffffffffffffffffffffff168273ffffffffffffffffffffffffffffffffffffffff167fddf252ad1be2c89b69c2b068fc378daa952ba7f163c4a11628f55a4df523b3ef60405160405180910390a45050565b612559846323b872dd60e01b8585856040516024016124f7939291906141b8565b604051602081830303815290604052907bffffffffffffffffffffffffffffffffffffffffffffffffffffffff19166020820180517bffffffffffffffffffffffffffffffffffffffffffffffffffffffff8381831617835250505050612b3d565b50505050565b60007f780e9d63000000000000000000000000000000000000000000000000000000007bffffffffffffffffffffffffffffffffffffffffffffffffffffffff1916827bffffffffffffffffffffffffffffffffffffffffffffffffffffffff191614806125d257506125d182612c04565b5b9050919050565b6060600060028360026125ec91906147aa565b6125f69190614723565b67ffffffffffffffff811115612635577f4e487b7100000000000000000000000000000000000000000000000000000000600052604160045260246000fd5b6040519080825280601f01601f1916602001820160405280156126675781602001600182028036833780820191505090505b5090507f3000000000000000000000000000000000000000000000000000000000000000816000815181106126c5577f4e487b7100000000000000000000000000000000000000000000000000000000600052603260045260246000fd5b60200101907effffffffffffffffffffffffffffffffffffffffffffffffffffffffffffff1916908160001a9053507f78000000000000000000000000000000000000000000000000000000000000008160018151811061274f577f4e487b7100000000000000000000000000000000000000000000000000000000600052603260045260246000fd5b60200101907effffffffffffffffffffffffffffffffffffffffffffffffffffffffffffff1916908160001a9053506000600184600261278f91906147aa565b6127999190614723565b90505b6001811115612885577f3031323334353637383961626364656600000000000000000000000000000000600f861660108110612801577f4e487b7100000000000000000000000000000000000000000000000000000000600052603260045260246000fd5b1a60f81b82828151811061283e577f4e487b7100000000000000000000000000000000000000000000000000000000600052603260045260246000fd5b60200101907effffffffffffffffffffffffffffffffffffffffffffffffffffffffffffff1916908160001a905350600485901c94508061287e90614929565b905061279c565b50600084146128c9576040517f08c379a00000000000000000000000000000000000000000000000000000000081526004016128c0906142f3565b60405180910390fd5b8091505092915050565b6128de838383612ce6565b505050565b6000806000604184511461292c576040517f08c379a000000000000000000000000000000000000000000000000000000000815260040161292390614393565b60405180910390fd5b6020840151925060408401519150606084015160001a90509193909250565b6129558383612dfa565b61296260008484846129a6565b6129a1576040517f08c379a000000000000000000000000000000000000000000000000000000000815260040161299890614353565b60405180910390fd5b505050565b60006129c78473ffffffffffffffffffffffffffffffffffffffff16612fc8565b15612b30578373ffffffffffffffffffffffffffffffffffffffff1663150b7a026129f06118d5565b8786866040518563ffffffff1660e01b8152600401612a1294939291906141ef565b602060405180830381600087803b158015612a2c57600080fd5b505af1925050508015612a5d57506040513d601f19601f82011682018060405250810190612a5a9190613a6f565b60015b612ae0573d8060008114612a8d576040519150601f19603f3d011682016040523d82523d6000602084013e612a92565b606091505b50600081511415612ad8576040517f08c379a0000000000000000000000000000000000000000000000000000000008152600401612acf90614353565b60405180910390fd5b805181602001fd5b63150b7a0260e01b7bffffffffffffffffffffffffffffffffffffffffffffffffffffffff1916817bffffffffffffffffffffffffffffffffffffffffffffffffffffffff191614915050612b35565b600190505b949350505050565b6000612b9f826040518060400160405280602081526020017f5361666545524332303a206c6f772d6c6576656c2063616c6c206661696c65648152508573ffffffffffffffffffffffffffffffffffffffff16612fdb9092919063ffffffff16565b9050600081511115612bff5780806020019051810190612bbf91906139b8565b612bfe576040517f08c379a0000000000000000000000000000000000000000000000000000000008152600401612bf5906145b3565b60405180910390fd5b5b505050565b60007f80ac58cd000000000000000000000000000000000000000000000000000000007bffffffffffffffffffffffffffffffffffffffffffffffffffffffff1916827bffffffffffffffffffffffffffffffffffffffffffffffffffffffff19161480612ccf57507f5b5e139f000000000000000000000000000000000000000000000000000000007bffffffffffffffffffffffffffffffffffffffffffffffffffffffff1916827bffffffffffffffffffffffffffffffffffffffffffffffffffffffff1916145b80612cdf5750612cde82612ff3565b5b9050919050565b612cf183838361305d565b600073ffffffffffffffffffffffffffffffffffffffff168373ffffffffffffffffffffffffffffffffffffffff161415612d3457612d2f81613062565b612d73565b8173ffffffffffffffffffffffffffffffffffffffff168373ffffffffffffffffffffffffffffffffffffffff1614612d7257612d7183826130ab565b5b5b600073ffffffffffffffffffffffffffffffffffffffff168273ffffffffffffffffffffffffffffffffffffffff161415612db657612db181613218565b612df5565b8273ffffffffffffffffffffffffffffffffffffffff168273ffffffffffffffffffffffffffffffffffffffff1614612df457612df3828261335b565b5b5b505050565b600073ffffffffffffffffffffffffffffffffffffffff168273ffffffffffffffffffffffffffffffffffffffff161415612e6a576040517f08c379a0000000000000000000000000000000000000000000000000000000008152600401612e6190614493565b60405180910390fd5b612e7381611869565b15612eb3576040517f08c379a0000000000000000000000000000000000000000000000000000000008152600401612eaa90614373565b60405180910390fd5b612ebf600083836128d3565b6001600360008473ffffffffffffffffffffffffffffffffffffffff1673ffffffffffffffffffffffffffffffffffffffff1681526020019081526020016000206000828254612f0f9190614723565b92505081905550816002600083815260200190815260200160002060006101000a81548173ffffffffffffffffffffffffffffffffffffffff021916908373ffffffffffffffffffffffffffffffffffffffff160217905550808273ffffffffffffffffffffffffffffffffffffffff16600073ffffffffffffffffffffffffffffffffffffffff167fddf252ad1be2c89b69c2b068fc378daa952ba7f163c4a11628f55a4df523b3ef60405160405180910390a45050565b600080823b905060008111915050919050565b6060612fea84846000856133da565b90509392505050565b60007f01ffc9a7000000000000000000000000000000000000000000000000000000007bffffffffffffffffffffffffffffffffffffffffffffffffffffffff1916827bffffffffffffffffffffffffffffffffffffffffffffffffffffffff1916149050919050565b505050565b6008805490506009600083815260200190815260200160002081905550600881908060018154018082558091505060019003906000526020600020016000909190919091505550565b600060016130b884610e5a565b6130c29190614804565b90506000600760008481526020019081526020016000205490508181146131a7576000600660008673ffffffffffffffffffffffffffffffffffffffff1673ffffffffffffffffffffffffffffffffffffffff168152602001908152602001600020600084815260200190815260200160002054905080600660008773ffffffffffffffffffffffffffffffffffffffff1673ffffffffffffffffffffffffffffffffffffffff168152602001908152602001600020600084815260200190815260200160002081905550816007600083815260200190815260200160002081905550505b6007600084815260200190815260200160002060009055600660008573ffffffffffffffffffffffffffffffffffffffff1673ffffffffffffffffffffffffffffffffffffffff16815260200190815260200160002060008381526020019081526020016000206000905550505050565b6000600160088054905061322c9190614804565b9050600060096000848152602001908152602001600020549050600060088381548110613282577f4e487b7100000000000000000000000000000000000000000000000000000000600052603260045260246000fd5b9060005260206000200154905080600883815481106132ca577f4e487b7100000000000000000000000000000000000000000000000000000000600052603260045260246000fd5b90600052602060002001819055508160096000838152602001908152602001600020819055506009600085815260200190815260200160002060009055600880548061333f577f4e487b7100000000000000000000000000000000000000000000000000000000600052603160045260246000fd5b6001900381819060005260206000200160009055905550505050565b600061336683610e5a565b905081600660008573ffffffffffffffffffffffffffffffffffffffff1673ffffffffffffffffffffffffffffffffffffffff168152602001908152602001600020600083815260200190815260200160002081905550806007600084815260200190815260200160002081905550505050565b60608247101561341f576040517f08c379a0000000000000000000000000000000000000000000000000000000008152600401613416906143f3565b60405180910390fd5b61342885612fc8565b613467576040517f08c379a000000000000000000000000000000000000000000000000000000000815260040161345e90614553565b60405180910390fd5b6000808673ffffffffffffffffffffffffffffffffffffffff16858760405161349091906140cb565b60006040518083038185875af1925050503d80600081146134cd576040519150601f19603f3d011682016040523d82523d6000602084013e6134d2565b606091505b50915091506134e28282866134ee565b92505050949350505050565b606083156134fe5782905061354e565b6000835111156135115782518084602001fd5b816040517f08c379a000000000000000000000000000000000000000000000000000000000815260040161354591906142d1565b60405180910390fd5b9392505050565b82805461356190614953565b90600052602060002090601f01602090048101928261358357600085556135ca565b82601f1061359c57805160ff19168380011785556135ca565b828001600101855582156135ca579182015b828111156135c95782518255916020019190600101906135ae565b5b5090506135d791906135db565b5090565b5b808211156135f45760008160009055506001016135dc565b5090565b600061360b61360684614673565b61464e565b90508281526020810184848401111561362357600080fd5b61362e8482856148e7565b509392505050565b6000613649613644846146a4565b61464e565b90508281526020810184848401111561366157600080fd5b61366c8482856148e7565b509392505050565b60008135905061368381615296565b92915050565b600081359050613698816152ad565b92915050565b6000815190506136ad816152ad565b92915050565b6000813590506136c2816152c4565b92915050565b6000813590506136d7816152db565b92915050565b6000815190506136ec816152db565b92915050565b60008083601f84011261370457600080fd5b8235905067ffffffffffffffff81111561371d57600080fd5b60208301915083600182028301111561373557600080fd5b9250929050565b600082601f83011261374d57600080fd5b813561375d8482602086016135f8565b91505092915050565b600082601f83011261377757600080fd5b8135613787848260208601613636565b91505092915050565b60008135905061379f816152f2565b92915050565b6000602082840312156137b757600080fd5b60006137c584828501613674565b91505092915050565b600080604083850312156137e157600080fd5b60006137ef85828601613674565b925050602061380085828601613674565b9150509250929050565b60008060006060848603121561381f57600080fd5b600061382d86828701613674565b935050602061383e86828701613674565b925050604061384f86828701613790565b9150509250925092565b6000806000806080858703121561386f57600080fd5b600061387d87828801613674565b945050602061388e87828801613674565b935050604061389f87828801613790565b925050606085013567ffffffffffffffff8111156138bc57600080fd5b6138c88782880161373c565b91505092959194509250565b600080604083850312156138e757600080fd5b60006138f585828601613674565b925050602061390685828601613689565b9150509250929050565b6000806040838503121561392357600080fd5b600061393185828601613674565b925050602061394285828601613790565b9150509250929050565b6000806000806060858703121561396257600080fd5b600061397087828801613674565b945050602061398187828801613790565b935050604085013567ffffffffffffffff81111561399e57600080fd5b6139aa878288016136f2565b925092505092959194509250565b6000602082840312156139ca57600080fd5b60006139d88482850161369e565b91505092915050565b6000602082840312156139f357600080fd5b6000613a01848285016136b3565b91505092915050565b60008060408385031215613a1d57600080fd5b6000613a2b858286016136b3565b9250506020613a3c85828601613674565b9150509250929050565b600060208284031215613a5857600080fd5b6000613a66848285016136c8565b91505092915050565b600060208284031215613a8157600080fd5b6000613a8f848285016136dd565b91505092915050565b600060208284031215613aaa57600080fd5b600082013567ffffffffffffffff811115613ac457600080fd5b613ad084828501613766565b91505092915050565b600060208284031215613aeb57600080fd5b6000613af984828501613790565b91505092915050565b60008060408385031215613b1557600080fd5b6000613b2385828601613790565b9250506020613b3485828601613674565b9150509250929050565b613b4781614838565b82525050565b613b5e613b5982614838565b6149ff565b82525050565b613b6d8161484a565b82525050565b613b7c81614856565b82525050565b613b93613b8e82614856565b614a11565b82525050565b6000613ba4826146d5565b613bae81856146eb565b9350613bbe8185602086016148f6565b613bc781614b24565b840191505092915050565b6000613bdd826146d5565b613be781856146fc565b9350613bf78185602086016148f6565b80840191505092915050565b613c0c816148c3565b82525050565b6000613c1d826146e0565b613c278185614707565b9350613c378185602086016148f6565b613c4081614b24565b840191505092915050565b6000613c56826146e0565b613c608185614718565b9350613c708185602086016148f6565b80840191505092915050565b6000613c89602083614707565b9150613c9482614b42565b602082019050919050565b6000613cac601c83614718565b9150613cb782614b6b565b601c82019050919050565b6000613ccf602483614707565b9150613cda82614b94565b604082019050919050565b6000613cf2602b83614707565b9150613cfd82614be3565b604082019050919050565b6000613d15603283614707565b9150613d2082614c32565b604082019050919050565b6000613d38601c83614707565b9150613d4382614c81565b602082019050919050565b6000613d5b601c83614707565b9150613d6682614caa565b602082019050919050565b6000613d7e602483614707565b9150613d8982614cd3565b604082019050919050565b6000613da1601983614707565b9150613dac82614d22565b602082019050919050565b6000613dc4602683614707565b9150613dcf82614d4b565b604082019050919050565b6000613de7602c83614707565b9150613df282614d9a565b604082019050919050565b6000613e0a603883614707565b9150613e1582614de9565b604082019050919050565b6000613e2d602a83614707565b9150613e3882614e38565b604082019050919050565b6000613e50602983614707565b9150613e5b82614e87565b604082019050919050565b6000613e73602083614707565b9150613e7e82614ed6565b602082019050919050565b6000613e96602c83614707565b9150613ea182614eff565b604082019050919050565b6000613eb9602983614707565b9150613ec482614f4e565b604082019050919050565b6000613edc602f83614707565b9150613ee782614f9d565b604082019050919050565b6000613eff602183614707565b9150613f0a82614fec565b604082019050919050565b6000613f22603183614707565b9150613f2d8261503b565b604082019050919050565b6000613f45601d83614707565b9150613f508261508a565b602082019050919050565b6000613f68601083614718565b9150613f73826150b3565b601082019050919050565b6000613f8b602c83614707565b9150613f96826150dc565b604082019050919050565b6000613fae601783614718565b9150613fb98261512b565b601782019050919050565b6000613fd1601083614707565b9150613fdc82615154565b602082019050919050565b6000613ff4602a83614707565b9150613fff8261517d565b604082019050919050565b6000614017601383614707565b9150614022826151cc565b602082019050919050565b600061403a601183614718565b9150614045826151f5565b601182019050919050565b600061405d602f83614707565b91506140688261521e565b604082019050919050565b6000614080601283614707565b915061408b8261526d565b602082019050919050565b61409f816148ac565b82525050565b6140b66140b1826148ac565b614a2d565b82525050565b6140c5816148b6565b82525050565b60006140d78284613bd2565b915081905092915050565b60006140ee8285613c4b565b91506140fa8284613c4b565b91508190509392505050565b600061411182613c9f565b915061411d8284613b82565b60208201915081905092915050565b600061413782613f5b565b91506141438285613b4d565b60148201915061415382846140a5565b6020820191508190509392505050565b600061416e82613fa1565b915061417a8285613c4b565b91506141858261402d565b91506141918284613c4b565b91508190509392505050565b60006020820190506141b26000830184613b3e565b92915050565b60006060820190506141cd6000830186613b3e565b6141da6020830185613b3e565b6141e76040830184614096565b949350505050565b60006080820190506142046000830187613b3e565b6142116020830186613b3e565b61421e6040830185614096565b81810360608301526142308184613b99565b905095945050505050565b60006020820190506142506000830184613b64565b92915050565b600060208201905061426b6000830184613b73565b92915050565b60006080820190506142866000830187613b73565b61429360208301866140bc565b6142a06040830185613b73565b6142ad6060830184613b73565b95945050505050565b60006020820190506142cb6000830184613c03565b92915050565b600060208201905081810360008301526142eb8184613c12565b905092915050565b6000602082019050818103600083015261430c81613c7c565b9050919050565b6000602082019050818103600083015261432c81613cc2565b9050919050565b6000602082019050818103600083015261434c81613ce5565b9050919050565b6000602082019050818103600083015261436c81613d08565b9050919050565b6000602082019050818103600083015261438c81613d2b565b9050919050565b600060208201905081810360008301526143ac81613d4e565b9050919050565b600060208201905081810360008301526143cc81613d71565b9050919050565b600060208201905081810360008301526143ec81613d94565b9050919050565b6000602082019050818103600083015261440c81613db7565b9050919050565b6000602082019050818103600083015261442c81613dda565b9050919050565b6000602082019050818103600083015261444c81613dfd565b9050919050565b6000602082019050818103600083015261446c81613e20565b9050919050565b6000602082019050818103600083015261448c81613e43565b9050919050565b600060208201905081810360008301526144ac81613e66565b9050919050565b600060208201905081810360008301526144cc81613e89565b9050919050565b600060208201905081810360008301526144ec81613eac565b9050919050565b6000602082019050818103600083015261450c81613ecf565b9050919050565b6000602082019050818103600083015261452c81613ef2565b9050919050565b6000602082019050818103600083015261454c81613f15565b9050919050565b6000602082019050818103600083015261456c81613f38565b9050919050565b6000602082019050818103600083015261458c81613f7e565b9050919050565b600060208201905081810360008301526145ac81613fc4565b9050919050565b600060208201905081810360008301526145cc81613fe7565b9050919050565b600060208201905081810360008301526145ec8161400a565b9050919050565b6000602082019050818103600083015261460c81614050565b9050919050565b6000602082019050818103600083015261462c81614073565b9050919050565b60006020820190506146486000830184614096565b92915050565b6000614658614669565b90506146648282614985565b919050565b6000604051905090565b600067ffffffffffffffff82111561468e5761468d614af5565b5b61469782614b24565b9050602081019050919050565b600067ffffffffffffffff8211156146bf576146be614af5565b5b6146c882614b24565b9050602081019050919050565b600081519050919050565b600081519050919050565b600082825260208201905092915050565b600081905092915050565b600082825260208201905092915050565b600081905092915050565b600061472e826148ac565b9150614739836148ac565b9250827fffffffffffffffffffffffffffffffffffffffffffffffffffffffffffffffff0382111561476e5761476d614a68565b5b828201905092915050565b6000614784826148ac565b915061478f836148ac565b92508261479f5761479e614a97565b5b828204905092915050565b60006147b5826148ac565b91506147c0836148ac565b9250817fffffffffffffffffffffffffffffffffffffffffffffffffffffffffffffffff04831182151516156147f9576147f8614a68565b5b828202905092915050565b600061480f826148ac565b915061481a836148ac565b92508282101561482d5761482c614a68565b5b828203905092915050565b60006148438261488c565b9050919050565b60008115159050919050565b6000819050919050565b60007fffffffff0000000000000000000000000000000000000000000000000000000082169050919050565b600073ffffffffffffffffffffffffffffffffffffffff82169050919050565b6000819050919050565b600060ff82169050919050565b60006148ce826148d5565b9050919050565b60006148e08261488c565b9050919050565b82818337600083830152505050565b60005b838110156149145780820151818401526020810190506148f9565b83811115614923576000848401525b50505050565b6000614934826148ac565b9150600082141561494857614947614a68565b5b600182039050919050565b6000600282049050600182168061496b57607f821691505b6020821081141561497f5761497e614ac6565b5b50919050565b61498e82614b24565b810181811067ffffffffffffffff821117156149ad576149ac614af5565b5b80604052505050565b60006149c1826148ac565b91507fffffffffffffffffffffffffffffffffffffffffffffffffffffffffffffffff8214156149f4576149f3614a68565b5b600182019050919050565b6000614a0a82614a1b565b9050919050565b6000819050919050565b6000614a2682614b35565b9050919050565b6000819050919050565b6000614a42826148ac565b9150614a4d836148ac565b925082614a5d57614a5c614a97565b5b828206905092915050565b7f4e487b7100000000000000000000000000000000000000000000000000000000600052601160045260246000fd5b7f4e487b7100000000000000000000000000000000000000000000000000000000600052601260045260246000fd5b7f4e487b7100000000000000000000000000000000000000000000000000000000600052602260045260246000fd5b7f4e487b7100000000000000000000000000000000000000000000000000000000600052604160045260246000fd5b6000601f19601f8301169050919050565b60008160601b9050919050565b7f537472696e67733a20686578206c656e67746820696e73756666696369656e74600082015250565b7f19457468657265756d205369676e6564204d6573736167653a0a333200000000600082015250565b7f464d3a2063616c6c6572206973206e6f74206f776e6572206e6f72206170707260008201527f6f76656400000000000000000000000000000000000000000000000000000000602082015250565b7f455243373231456e756d657261626c653a206f776e657220696e646578206f7560008201527f74206f6620626f756e6473000000000000000000000000000000000000000000602082015250565b7f4552433732313a207472616e7366657220746f206e6f6e20455243373231526560008201527f63656976657220696d706c656d656e7465720000000000000000000000000000602082015250565b7f4552433732313a20746f6b656e20616c7265616479206d696e74656400000000600082015250565b7f464d3a20696e76616c6964207369676e6174757265206c656e67746800000000600082015250565b7f4552433732313a207472616e7366657220746f20746865207a65726f2061646460008201527f7265737300000000000000000000000000000000000000000000000000000000602082015250565b7f4552433732313a20617070726f766520746f2063616c6c657200000000000000600082015250565b7f416464726573733a20696e73756666696369656e742062616c616e636520666f60008201527f722063616c6c0000000000000000000000000000000000000000000000000000602082015250565b7f4552433732313a206f70657261746f7220717565727920666f72206e6f6e657860008201527f697374656e7420746f6b656e0000000000000000000000000000000000000000602082015250565b7f4552433732313a20617070726f76652063616c6c6572206973206e6f74206f7760008201527f6e6572206e6f7220617070726f76656420666f7220616c6c0000000000000000602082015250565b7f4552433732313a2062616c616e636520717565727920666f7220746865207a6560008201527f726f206164647265737300000000000000000000000000000000000000000000602082015250565b7f4552433732313a206f776e657220717565727920666f72206e6f6e657869737460008201527f656e7420746f6b656e0000000000000000000000000000000000000000000000602082015250565b7f4552433732313a206d696e7420746f20746865207a65726f2061646472657373600082015250565b7f4552433732313a20617070726f76656420717565727920666f72206e6f6e657860008201527f697374656e7420746f6b656e0000000000000000000000000000000000000000602082015250565b7f4552433732313a207472616e73666572206f6620746f6b656e2074686174206960008201527f73206e6f74206f776e0000000000000000000000000000000000000000000000602082015250565b7f4552433732314d657461646174613a2055524920717565727920666f72206e6f60008201527f6e6578697374656e7420746f6b656e0000000000000000000000000000000000602082015250565b7f4552433732313a20617070726f76616c20746f2063757272656e74206f776e6560008201527f7200000000000000000000000000000000000000000000000000000000000000602082015250565b7f4552433732313a207472616e736665722063616c6c6572206973206e6f74206f60008201527f776e6572206e6f7220617070726f766564000000000000000000000000000000602082015250565b7f416464726573733a2063616c6c20746f206e6f6e2d636f6e7472616374000000600082015250565b7f464d5f4c414e445f47454e455241544500000000000000000000000000000000600082015250565b7f455243373231456e756d657261626c653a20676c6f62616c20696e646578206f60008201527f7574206f6620626f756e64730000000000000000000000000000000000000000602082015250565b7f416363657373436f6e74726f6c3a206163636f756e7420000000000000000000600082015250565b7f464d3a206865726f494420657869737400000000000000000000000000000000600082015250565b7f5361666545524332303a204552433230206f7065726174696f6e20646964206e60008201527f6f74207375636365656400000000000000000000000000000000000000000000602082015250565b7f464d3a20696e76616c6964206164647265737300000000000000000000000000600082015250565b7f206973206d697373696e6720726f6c6520000000000000000000000000000000600082015250565b7f416363657373436f6e74726f6c3a2063616e206f6e6c792072656e6f756e636560008201527f20726f6c657320666f722073656c660000000000000000000000000000000000602082015250565b7f464d3a20696e76616c6964207369676e65720000000000000000000000000000600082015250565b61529f81614838565b81146152aa57600080fd5b50565b6152b68161484a565b81146152c157600080fd5b50565b6152cd81614856565b81146152d857600080fd5b50565b6152e481614860565b81146152ef57600080fd5b50565b6152fb816148ac565b811461530657600080fd5b5056fea26469706673582212203efc020841104392400e1f5538bd3c861a986729a3c98ee9f654c7208d78561964736f6c63430008040033",
  "linkReferences": {},
  "deployedLinkReferences": {}
}